:020000040800F2
:10000000B0DD0020D5030008299A0008D57E00083D
:10001000ED990008DD2700085DF3000800000000EE
:1000200000000000000000000000000015030008B0
:10003000F534000800000000710300081DCA000824
:10004000EF030008EF030008EF030008EF030008C8
:10005000EF030008EF030008F7340008EF0300087F
:10006000EF030008153500081F350008EF030008EE
:100070006D290008EF030008EF030008EF030008F4
:10008000EF030008EF030008EF030008EF03000888
:10009000E1270008EF030008EF03000829350008F6
:1000A000EF030008EF030008EF030008EF03000868
:1000B000EF030008EF030008EF030008EF03000858
:1000C000EF030008EF030008EF030008EF03000848
:1000D000EF030008C9D10008EF030008D9D10008D8
:1000E00001350008EF030008EF030008EF030008E4
:1000F000EF030008EF030008EF030008EF03000818
:10010000EF030008EF030008EF030008EF03000807
:10011000EF030008EF030008EF030008EF030008F7
:10012000EF030008EF0300087D290008EF03000833
:10013000EF030008EF030008EF030008EF030008D7
:10014000F1270008EF030008EF0300082D9A0008CC
:10015000EF030008EF03000815320008EF03000862
:10016000EF030008EF030008EF030008EF030008A7
:10017000EF030008EF030008EF0300080000000091
:10018000EF030008EF03000800F002F800F0B2F8F7
:100190000AA090E8000C82448344AAF10107DA45E2
:1001A00001D100F0A7F8AFF2090EBAE80F0013F082
:1001B000010F18BFFB1A43F00103184764680100E0
:1001C000846801000A444FF0000C10F8013B13F062
:1001D000070408BF10F8014B1D1108BF10F8015BA0
:1001E000641E05D010F8016B641E01F8016BF9D193
:1001F00013F0080F1EBF10F8014BAD1C0C1B09D1EA
:100200006D1E58BF01F801CBFAD505E014F8016B5B
:1002100001F8016B6D1EF9D59142D6D370470000ED
:100220000023002400250026103A28BF78C1FBD8FF
:10023000520728BF30C148BF0B6070476E2900F0DD
:10024000E582702900F02784662916F0B0816529BF
:1002500016F0AD81672916F0AA81612916F0A981EF
:1002600003681B0A28BF41F08001692900F09282CF
:10027000642900F08F82752900F08C826F2900F0CC
:10028000B483782900F0F383E92900F04F83E4294F
:1002900000F04C83F52900F04983EF2900F0B18389
:1002A000F82900F0F2830368DB0928BF41F08001E0
:1002B000632901F01B81732901F02081E32901F0FA
:1002C0002B81F32901F03081002070471FB516F013
:1002D00064F901F07FF904000020002115F0CAFA4A
:1002E000401C60600020002115F0AEFAE0601FBDE8
:1002F00010B510BD01F040F91146FFF7E7FF12F00D
:1003000027FE01F01DFA03B4FFF7F2FF03BC01F072
:1003100061FA00002C4B19680868B0E8F04F80F3D0
:100320000988BFF36F8F4FF0000080F3118870478A
:100330000000000008480068006880F308884FF05B
:10034000000080F3148862B661B6BFF34F8FBFF32D
:100350006F8F00DF00BF00BF08ED00E0DFF80C008A
:10036000016841F470010160704700BF88ED00E052
:10037000EFF30980BFF36F8F134B1A681EF0100F55
:1003800008BF20ED108A20E9F04F106009B44FF04B
:10039000500080F31188BFF34F8FBFF36F8F14F0BD
:1003A0007BFC4FF0000080F3118809BC19680868D5
:1003B000B0E8F04F1EF0100F08BFB0EC108A80F3C9
:1003C0000988BFF36F8F7047E4010020EFF30580C9
:1003D000704700000948804709480047FEE7FEE7EC
:1003E000FEE7FEE7FEE7FEE7FEE7FEE7FEE7FEE7E5
:1003F00004480549054A064B70470000E5CA000855
:1004000089010008B09D0020B0DD0020B0BD0020B3
:10041000B0BD002053EA020C00F069802DE9F04BDA
:100420004FF00006002B1FBFB3FA83F503FA05F463
:1004300024FA05F65E4012BF1643B2FA82F502FABC
:1004400005F4C5F120051EBF22FA05FC44EA0C04A0
:10045000203556EA044C4FEA144418BF641C4FF090
:1004600000084FF00009904271EB030C39D30029CA
:1004700019BFB1FA81F701FA07F6B0FA80F700FA6E
:1004800007F6C7F120071EBF20FA07FC46EA0C0654
:100490002037B6FBF4FCA7EB0507103F07F01F0B56
:1004A000CBF120060CFA0BFB2CFA06F644BFB34640
:1004B0000026202FA4BF5E464FF0000B5BEA060C1F
:1004C00008BF4FF0010B19EB0B09ABFB027C48EBAB
:1004D0000608C01B06FB02CC0BFB03CC71EB0C0126
:1004E000C1E70B46024641464846BDE8F08B13B5CE
:1004F0004FF000004FF00001AFF30080BDE81C405A
:10050000704700001CB50C46064B7B4469460090C2
:10051000204600F094F904460020694600F0A2F954
:1005200020461CBD5703000010B5431C02E010F824
:10053000011B71B18107FAD14FF0013202C88C1A48
:100540008C4314EAC211F9D0C01A0A0603D0C01EA7
:1005500010BDC01A10BD0A0401D0801E10BD0902D2
:10056000FCD0401E10BD032A40F2308010F0030C76
:1005700000F0158011F8013BBCF1020F624498BFF6
:1005800011F801CB00F8013B38BF11F8013BA2F193
:10059000040298BF00F801CB38BF00F8013B11F00E
:1005A000030300F02580083AC0F0088051F8043BAE
:1005B000083A51F804CBA0E80810F5E7121D5CBF1B
:1005C00051F8043B40F8043BAFF30080D20724BF4E
:1005D00011F8013B11F801CB48BF11F8012B24BFE2
:1005E00000F8013B00F801CB48BF00F8012B704731
:1005F00010B5203AC0F00B80B1E81850203AA0E8BE
:100600001850B1E81850A0E81850BFF4F5AF5FEAF1
:10061000027C24BFB1E81850A0E8185044BF18C9A4
:1006200018C0BDE810405FEA827C24BF51F8043B4B
:1006300040F8043B08BF7047D20728BF31F8023B9F
:1006400048BF11F8012B28BF20F8023B48BF00F833
:10065000012B704702F0FF0343EA032242EA024201
:1006600000F0EABA4FF0000200B5134694469646F1
:10067000203922BFA0E80C50A0E80C50B1F12001B5
:10068000BFF4F7AF090728BFA0E80C5048BF0CC063
:100690005DF804EB890028BF40F8042B08BF7047C1
:1006A00048BF20F8022B11F0804F18BF00F8012B33
:1006B000704770477047704710B500F0DDFA00686A
:1006C00010BD10B5044600F0D7FA046010BD70B537
:1006D000044685690068C10601D5302600E0202661
:1006E000C00707D070BDD4E9012130469047206A89
:1006F000401C20626D1EF6D570BD70B5044685693C
:100700000078C00707D170BDD4E9012120209047AF
:10071000206A401C20626D1EF6D570BD09684A052E
:1007200001D540B27047C905FCD500B270470968D1
:100730004A0501D5C0B27047C905FCD580B27047E3
:1007400070B50C460546012A05D02878800600D5EC
:10075000EA69002302E0012305E05B1C934202D218
:10076000E05C0028F9D1A869E618C01AA861286AD7
:10077000184428622846FFF7AAFF04E0D5E90121C2
:1007800014F8010B9047B442F8D32846FFF7B5FFA1
:1007900070BD00002DE9F04106460024106875295F
:1007A000314616A510D0FFF7B9FF002802DA404203
:1007B00013A507E031688A0701D512A502E04907B1
:1007C00004D511A5012401E0FFF7B1FF00210A22A1
:1007D00006F1240709E0B0FBF2FCB0FBF2F302FBE8
:1007E0001C00303078541846491C0028F3D12346A9
:1007F0002A463046BDE8F04100F087BA000000000C
:100800002D0000002B00000020000000116802688D
:10081000006A530501D508700AE0D30501D50880A8
:1008200006E0130603D5C217C1E9000200E0086024
:100830000120704701694A1C02610878704700B5C1
:100840008FB0CDE901310021059105497944CDE909
:1008500003101146684600F029F90FB000BD0000F2
:10086000E5FFFFFF0A6802F8010B0A60704700000D
:100870002DE9FF5F15468A460446DFF8AC80F84450
:100880000027D8E900103E46CDE9001010E03AF804
:1008900016106A4602A800F04BFE411C07D02178D2
:1008A000890603D5E269391891420DD80744761CB0
:1008B0002078800602D5E069B84205DDAE42E6DB6D
:1008C0003AF816000028E2D1A069C01BA0612046BA
:1008D000FFF7FDFED8E90010CDE90010002017E079
:1008E0003AF818106A4602A800F022FEB0F1FF3F65
:1008F00081460BD000250DF1080B05E0D4E901215C
:100900001BF8050090476D1C4D45F7D308F1010019
:10091000B0428046E4DB206A384420622046FFF77C
:10092000ECFEBDE8FF9F0000265F01002DE9F041CD
:100930008046D21D22F007020025D2E90002F529E7
:1009400015A614D0011E72F1000106DA0023D0EBC7
:10095000030063EB020211A608E0D8F800108B0731
:1009600001D50FA602E0490701D50EA601251146C3
:10097000002408F1240704E000F082F930323A55EF
:10098000641C50EA0102F7D12B463246214640460C
:10099000BDE8F04100F0B9B9000000002D000000F2
:1009A0002B0000002000000030B4002100F12404DE
:1009B00008E002F00705D208303542EA4372DB084E
:1009C0006554491C52EA0305F3D10468002310A2C0
:1009D000250707D5A40600D421B1C46901230DA2BF
:1009E000641EC46130BC00F090B910B504462146C5
:1009F0001068FFF79CFE02462046BDE81040002329
:100A0000D2E7D21D22F00701D1E90023CCE7000094
:100A10000000000030000000F0B40D460188090518
:100A200002D5214C7C4402E01F4C7C440E34002152
:100A300000F1240608E002F00F071209E75D42EA20
:100A400003721B097754491C52EA0307F3D1027859
:100A50000023120704D5702D06D009B102231134EA
:100A60002246F0BC00F051B901231034F8E770B50C
:100A700004460D4621461068FFF759FE02462946F6
:100A80002046BDE870400023C6E7D21D22F00703D0
:100A9000D3E90023C0E70368126843F02003036032
:100AA0000823C3610023B7E7885D01002DE9F05FEB
:100AB000894604464FF0000ADFF874B1FB44C0F8E1
:100AC00020A02046E1688847002874D0252806D059
:100AD000D4E901219047206A401C2062F1E70026FA
:100AE0005F462046E16888472028054607DB312D10
:100AF00005D2781910F8200C08B10643F1E7B007C9
:100B000001D526F00406C4F81CA00027C4F818A0DC
:100B10002A2D09D028460FF0B9FC38B304EB87081A
:100B2000303DC8F8185019E059F8041B204604EB72
:100B300087029161E1688847012F054618D1E06975
:100B4000002820DA26F020061DE0D8F8180000EB77
:100B5000800005EB40003038C8F818002046E168F6
:100B6000884705460FF092FC0028EED1012F0AD0ED
:100B70002E2D08D12046E16888477F1C0546022FAC
:100B800046F02006C4DBA069002803DA404246F0A4
:100B90000106A061F00701D026F010066C2D0BD0E5
:100BA000682D09D04C2D39D06A2D35D0742D35D013
:100BB0007A2D33D016E038E0E1682F46204688478A
:100BC000B842054609D16C2F26D04FF48060E16809
:100BD000064320468847054604E06C2F1AD04FF4A0
:100BE000807006430DB3A5F14100192802D82035C5
:100BF00046F400664A462946204626604E46FFF7E0
:100C00001DFB80B101280BD0F61D26F0070000F176
:100C1000080956E74020E4E78020D8E70020D6E71F
:100C200006F104094DE7284652E7206ABDE8F09F27
:100C3000185D01004FF000020429C0F0128010F08E
:100C4000030C3FF411ADCCF1040CBCF1020F18BF42
:100C500000F8012BA8BF20F8022BA1EB0C01FFF735
:100C600003BD5FEAC17C24BF00F8012B00F8012B13
:100C700048BF00F8012B7047004870474C9D00208A
:100C800030B5B0F10A024FEA900E71F100034EEA5E
:100C9000817EB0EB0E0061EB91014FEA101E4EEA2F
:100CA000017E10EB0E0041EB11114FEA102E4EEABF
:100CB000016E10EB0E0041EB11214FEA104E4EEA8F
:100CC000014E10EB0E0041EB1141401841F10001C3
:100CD0004FEAD00040EA41704FEAD10110EB8005A5
:100CE0004FEA810444EA907444EB01046D1944EB2B
:100CF0000404521BA3414FF0000348BF0A3200D541
:100D000030BD401C41F1000130BD2DE9F0470D46DA
:100D100099469246044600F124080168880604D5E5
:100D2000E06921F01001216000E00120A84201DD0E
:100D3000471B00E00027A1697A1902EB0900081A95
:100D4000A0612078C00602D42046FFF7C0FC002630
:100D500008E0D4E901211AF806009047206A401CF7
:100D6000761C20624E45F4DB2078C0060AD520466A
:100D7000FFF7ADFC06E0D4E9012130209047206A5E
:100D8000401C2062381EA7F10107F4DC07E0D4E91B
:100D9000012118F805009047206A401C2062281E97
:100DA000A5F10105F3DC2046FFF7A7FC207800063B
:100DB00002D50220BDE8F0870120FBE770472DE94E
:100DC000FF4F0C461E464FF0FF378BB0D2E90001B3
:100DD000DDF860800A908A46C1F30A5505B93D46A0
:100DE000002108464FF00000BAF1000F00F4400067
:100DF00005DA00EB80004FF4400101EA50004FEAB1
:100E00009059B9F1010F00DDB9460A9850EA4A003D
:100E10000ED044F61050A5F2FF3545432F14B8F11B
:100E2000000F1ED07542291E1EDDC9F100021CE014
:100E3000B8F1010F4FF0000001D0302103E0F24380
:100E400005E02154401CB042FBDB3046002200216B
:100E500021540B99C1F80880C1E900200FB0BDE80A
:100E6000F08FBD1B6D1CDEE74A4600DA694206A81A
:100E700000F0F4FB06AB93E8070003AB83E8070040
:100E800050460A9900F0ADFC8DE80700A0F500502F
:100E90001F3800900398002D0ADD42F21F014A46D8
:100EA0000844002303A90390684600F016FF09E0F8
:100EB000A0F500504A461F38002303A90390684656
:100EC00000F020FF8DE807000004000C03D04FF075
:100ED000FF30410800E01046B8F1000F03D00022B7
:100EE000009215461EE0751E05D4FFF7C9FE30328C
:100EF00062556D1EF9D5B3460122084302D0002287
:100F00007F1C04E02078302801D100227F1E002AB7
:100F1000099784D01DE0112D07DAFFF7B1FE3032BA
:100F200062556D1C50EA0102F5D1084302D00098C9
:100F3000C8B10EE00021681E05E0235C625C6354CA
:100F40002254401E491C8142F7DBAB46A81B401EC1
:100F50000990002004F80B000B98099AC0F808804B
:100F6000C0E9002B7AE711264FF0000857E72DE97A
:100F7000F04F88460446D21D22F0070191B0D1E916
:100F80000001CDE90A010EF0EBF902460B98C00F03
:100F900001D02D2007E02068810701D52B2002E039
:100FA000202101EAC000032A099001D0072A05DBAD
:100FB00003464146204600F011FB0BE120788006F5
:100FC00001D5E06900E00620B8F1650F814606D042
:100FD000B8F1660F18D0B8F1670F70D131E000207A
:100FE000B9F1110F009001DB112301E009F10103B8
:100FF0000AAA01A90CA8FFF7E2FEDDE90C700026A1
:1010000009F10105834647E001204B4600904FF06F
:1010100000470AAA01A90CA8FFF7D1FEDDE90DB02F
:101020000C995D46002610B909F101000D18B9EBC5
:10103000050003D4C0F1FF3609F10105A5EB090055
:101040002BE0B9F1010F01DA4FF001090020B9F1ED
:10105000110F0090484601DD112300E003460AAA63
:1010600001A90CA8FFF7ABFEDDE90C704D46002688
:101070008346207800070AD4AB4500DA5D4601A814
:10108000012D04DD411911F8011C302907D04F450D
:1010900002DA17F1040F04DA012082460FE06D1E18
:1010A000EEE7002F02DCED1B3E4403E0781CA84273
:1010B00000DD7D1CB81B00F1010A4FF000472078CD
:1010C000000703D4AA4501DB4FF0FF3A0021B7F136
:1010D000004F0DF143088DF8431024D002202B233C
:1010E000002F01DA7F422D230A21021EA0F1010008
:1010F00000DC5FB197FBF1FC97FBF1F201FB1C7C7C
:1011000017460CF1300C08F801CDEEE7A8F101000C
:1011100003702188090501D5452100E06521A0F172
:10112000010800F8011C09980FA9A1EB0807FF1D91
:1011300000B10120411901EBEA70A1693844081A95
:10114000401EA0612078C00602D42046FFF7BFFAF7
:10115000099828B1D4E901219047206A401C2062F7
:101160002078C00622D52046FFF7B1FA1EE0002EF7
:1011700004DBB34502DD01A8805D00E03020D4E946
:1011800001219047206A401C2062761CAAF10100D0
:101190005FEA000A0AD100F01DFAC0680168405CED
:1011A000D4E901219047206A401C2062281EA5F145
:1011B0000105DCDC07E0D4E9012118F8010B9047B8
:1011C000206A401C2062381EA7F10107F3DC20468C
:1011D000FFF793FA032011B041E600002DE9F04F2C
:1011E00004460D46D21D22F0070089B0D0E90097D1
:1011F000484639460EF0B4F80246F80F01D02D23C8
:1012000007E02068810701D52B2302E0202101EAB5
:10121000C0038DF820300BB1012000E00020032A2C
:10122000824601D0072A04DB2946204600F0D6F981
:101230003FE12078800601D40D2500E0E569C7F381
:101240000A560D2D49DA00214FEA175B08464FF088
:101250000000002F00F4400007DA00EB80004FF49C
:10126000400100EBD07001EA60008115012901DD29
:101270004FF0FF3100224FEA850CBCF1180F06D366
:101280001346ACF118004FF08052C24003E04FF417
:10129000801323FA0CF30CF10C0CBCF1200F04D3D7
:1012A000ACF1200C09FA0CF001E007FA0CF000296F
:1012B0004FF0004801DD18B90FE00ED140450CD3C6
:1012C00019EB02095F4121B9404502D19F4329EA48
:1012D0000209BBEB175F00D0761C2088000502D501
:1012E0007B48784402E07A487844193808AA3023C9
:1012F00002F80A30037C0AF10101002E0AF1020A09
:1013000053546A4602DC4FF0300101E04FF03101E6
:101310004FF001088DF8001002D0A6F2FF3603E06E
:1013200059EA470100D06B4E002D02DC21780907F5
:1013300004D54FF002082E218DF80110C44600217B
:101340000BE0C7F303433F01C35C491C6D1E02F869
:101350000830052908F1010801DA002DF1DC00212F
:101360000CE000EB1973491C1B786D1E082902F86C
:1013700008304FEA091908F1010801DA002DF0DC04
:1013800021688B0602D516E0A8F10108E04505DDCD
:1013900002EB080313F8013C302BF5D0B8F1000F35
:1013A00009DD02EB080313F8013C2E2B03D10907DA
:1013B00001D4A8F10108002D05DD3E2102F8081036
:1013C0006D1E08F10108407C002E02F8080008F1AB
:1013D000010804DA2D20764202F8080002E02B20F2
:1013E00002F808000A214FF47A70864208F10108D9
:1013F0000BDB96FBF0F3303302F8083096FBF0F38A
:1014000008F1010800FB136601E0642E0CDB642088
:1014100096FBF0F3303302F8083096FBF0F308F156
:10142000010800FB136601E00A2E06DB96FBF1F0D3
:10143000303002F8080008F1010896FBF1F001FBDA
:101440001060303002F80800A16908F1010808EBCB
:10145000050202EB0A00081AA0612078C00602D437
:101460002046FFF734F9216A08AE01EB0A0020623A
:1014700004E0D4E9012116F8010B9047BAF1010A02
:10148000F7D22078C00602D52046FFF720F96E4635
:1014900009E016F8010B3E280FD0D4E9012190474E
:1014A000206A401C2062B8F10108F2D22046FFF702
:1014B00024F909B00320BDE8F08F206A2844206297
:1014C00003E0D4E90121302090476D1EEBD3F8E70B
:1014D0003D56010002FCFFFF10B5436913B1AFF3A5
:1014E000008001E0FFF72CF9012010BD127800F117
:1014F00024010A7000224A700122EDE711684FF0C2
:10150000FF32E9E710B5436913B1AFF3008001E0A2
:10151000FFF7AEF9012010BD128800F1240182848A
:101520000022C2840122EDE711684FF0FF32E9E7A3
:1015300070B516460C46054600F044F8036893F86B
:101540000101012806D0FF2C0FD8185D68B10120D9
:101550002C7070BDD3F807013246214603F2071301
:1015600003442846BDE8704018474FF0FF3070BD77
:10157000004870474C9D00207546FFF7F9FFAE46C6
:1015800005006946534620F00700854618B020B58F
:10159000FEF72EFFBDE820404FF000064FF0000799
:1015A0004FF000084FF0000B21F00701AC46ACE80B
:1015B000C009ACE8C009ACE8C009ACE8C0098D4678
:1015C0007047000010B500F005F8001D10BD00BF09
:1015D000A5420100004870476C9D00202DE9F041B4
:1015E0001F46044603260168072A01F4006004DB55
:1015F00008B116A505E016A503E008B115A500E0A1
:1016000015A521F010002060A069C01EA0610FB1D7
:10161000401EA0612046FFF75AF84FB1D4E90121DE
:1016200038469047206A401C2062C01C206206E0B9
:10163000206AFAE7D4E9012115F8010B9047761EDC
:10164000F8D22046FFF759F8BDE8F0814E414E0030
:101650006E616E00494E4600696E66002DE9F047E6
:10166000814616468AB0354878440DC88DE80D008D
:1016700032487844801C03AC0DC884E80D0041F664
:101680009B300844372190FBF1F290FBF1F5A5F176
:10169000800501FB12041B3C02D56442012000E0DE
:1016A0000020DFF898A080460027FA44AAF1BE0A7D
:1016B0000EE0E0070AD03246684607EB47010123F7
:1016C0000AEB810100F01EFB8DE8070064107F1C0F
:1016D000002CEED1194F7F44AE3F19E0E80715D03A
:1016E00007EB04100DF1180A90E80E008AE80E00CE
:1016F000C068F04201D1981908903246012306A92A
:1017000003A800F0FFFA03AB83E807006D10641C28
:10171000002DE3D14FF0010332466946B8F1000FC6
:1017200003A802D000F0D9FA01E000F0EBFAC9E911
:101730000001C9F808200AB0BDE8F087485301004D
:1017400010B50446AFF300802046BDE81040FEF718
:10175000DABD00004FF0013C50F8042B51F8043B77
:101760009A4221D1A2EB0C03934313EACC1317D175
:1017700050F8042B51F8043B9A4215D1A2EB0C030C
:10178000934313EACC130BD150F8042B51F8043BCC
:101790009A4209D1A2EB0C03934313EACC13DBD09A
:1017A0004FF00000704700BFD01A01BAB1FA81F1C2
:1017B00001F0180122FA01F0CB40C1F12001DBB2A7
:1017C000C0B2C01A2CFA01F3D11A914311EAC31125
:1017D000E6D1704701491820ABBEFEE726000200A3
:1017E00070475FEA400C08BF91F0000F4FEA8C236E
:1017F0004FEAC12243EA51514FEA1C5018BF00F58D
:10180000F0404FEA300018BF41F000415FEA6C5CE5
:1018100000F02980BCF1FF3F08BF40F080407047D6
:10182000130C06BF12044FF0100C4FF0000C130EF7
:1018300004BF12020CF1080C130F04BF12010CF1CB
:10184000040C930F04BF92000CF1020CD30F04BFE1
:1018500052000CF1010C11464FF00002A0F11F00E4
:10186000A0EB0C00704711F0004F08BF704731F03B
:1018700000413FF4D5AF0B0C06BF09044FF0100C2C
:101880004FF0000C0B0E04BF09020CF1080C0B0FFB
:1018900004BF09010CF1040C8B0F04BF89000CF18B
:1018A000020CCB0F04BF49000CF1010CCCF120035A
:1018B000A0EB0C0022FA03F302FA0CF241EA030156
:1018C00000F10100704720F07F4C80EA030023F014
:1018D0007F47ACEB070303F57C5300F0004003F1B6
:1018E000FF032DE980494FEA154B09B44FEA144331
:1018F00025EA0B4E24EA03480FF2042606EB1327D1
:1019000049083E785FEA320203FB0667C7F5000725
:1019100007FB06F64FEA54374FEAD64606F10206B1
:1019200007FB066CCCF1005C4FEA1C472CEA074C25
:1019300007FB06F40CFB06F504EB15464FEA96167A
:1019400034BF00204FF000404FEAD13706FB07FCC0
:101950004FEA1C4C0CFB0BF7D21B03FB0CF761EBA3
:1019600007010CFB0EF7B0EB074072EB17420CFBC4
:1019700008F734BFA2EB0742B2EB074261EB174115
:101980004FEA0C444FEA910706FB07FC4FEA1C4C58
:101990000CFB0BF7B0EBC74072EB573203FB0CF7B5
:1019A00034BFA2EBC742B2EBC74261EB57310CFB2D
:1019B0000EF7B0EBC70072EB57720CFB08F734BFA1
:1019C000A2EBC702B2EBC70261EB5771039F4FEA6C
:1019D000816141EA921104EBCC044FEAD1374FEA1E
:1019E000826206FB07FC42EA90124FEA80604FEAEF
:1019F0001C4C0CFB0BF7D21B03FB0CF761EB070134
:101A00000CFB0EF7B0EB074072EB17420CFB08F72C
:101A100034BFA2EB0742B2EB074261EB17414FEA3A
:101A20008C554FEA910704EB9C2406FB07FC4FEA18
:101A30001C4C0CFB0BF7B0EBC74072EB573203FBAF
:101A40000CF734BFA2EBC742B2EBC74261EB573190
:101A50000CFB0EF7B0EBC70072EB57720CFB08F7EC
:101A600034BFA2EBC702B2EBC70261EB577115EBB3
:101A70004C254FEA816141EA92114FEA82624FEAB6
:101A8000D13742EA901206FB07FC44F100044FEA0A
:101A900080604FEA1C4C0CFB0BF7D21B03FB0CF7CE
:101AA00061EB07010CFB0EF7B0EB074072EB17423E
:101AB0000CFB08F734BFA2EB0742B2EB074261EB25
:101AC000174115EB1C154FEA813141EA92414FEA6B
:101AD000823242EA90424FEA80304FEA0C7644F17B
:101AE000000448EA03434EEA0B484FF0000EB2EB05
:101AF000080C71EB030724BF624639464EEB0E0E0D
:101B00004FF0000B0018524149414BEB0B0BB2EB6D
:101B1000080C71EB03077BF1000B24BF62463946CA
:101B20004EEB0E0E4FF0000B0018524149414BEBAB
:101B30000B0BB2EB080C71EB03077BF1000B24BF1E
:101B4000624639464EEB0E0E51EA020718BF46F0C8
:101B5000010616EB0E7655F1000254F1000103D593
:101B6000BDE88901BDE80088BDE88901BDE80048FD
:101B7000B619524141EB0101A3F101037047808086
:101B80007F7E7D7C7B7A79787776767574737271D7
:101B900071706F6E6E6D6C6C6B6A6A69686867668F
:101BA00066656464636362616160605F5F5E5E5D21
:101BB0005D5C5C5B5B5A5A59595858575756565595
:101BC00055555454535352525251515050504F4FF7
:101BD0004F4E4E4D4D4D4C4C4C4B4B4B4A4A4A4947
:101BE000494948484847474747464646454545448A
:101BF0004444444343434342424242414141002B17
:101C00009C4630D477002BD01CB54FEA370703B47D
:101C10004FF010004FF01001BAF1000F06D0BCF1E8
:101C2000000FDCBF40F0080040F008014FF000005A
:101C30000FBCBDE810400BF1010BBBF1010F08BF59
:101C40005FEA170722BF12F1010211F101014FF003
:101C5000004143F1000300F0004043EA00007047F8
:101C6000F9D35708D0E746EA064613F1400F4FEA8A
:101C700016461FDD13F1200FDFBF16430A46002171
:101C800020335B42BED0C3F1200746EA064602FA83
:101C900007F74FEA164646EA0706C3F1200722FA7D
:101CA00003F201FA07F721FA03F14FF0000342EAC9
:101CB0000702A7E746EA020646EA06464FEA164644
:101CC00046EA0106BCBF46EA0646360C4FF0000362
:101CD0004FF000024FF0000194E72DE9804C9A4646
:101CE000934670B491E8380007C831EA400C48BF09
:101CF00034EA430C03D5FFF7E6FDFFF780FFF0BCA5
:101D0000BDE8008C2DE9804C9A46934670B491E86A
:101D1000380007C810F0804F08BF13F0804F03D180
:101D200000F005F8FFF76BFFF0BCBDE8008C20F079
:101D30007F4780EA030023F07F4C07EB0C03A3F5F9
:101D40007C5300F00040A3F1FE0392F0000F00F07E
:101D5000B38095F0000F00F077802DE901494FEA3C
:101D600011404FEA144621EA004800FB06FC24EA31
:101D7000064708FB06F607FB08F800FB07F718EB19
:101D800006484CEB164C4FEA124B18EB07484FEA4B
:101D900015464CEB174022EA0B4E0BFB06FC25EADE
:101DA00006470EFB06F607FB0EFE0BFB07F71EEBC6
:101DB000064E4CEB164C4FF000061EEB074E4CEB5C
:101DC000174B18EB0B0840F1000018EB0E0B58EB0B
:101DD000000840F100008F1A4FF000013CBFC943DA
:101DE000661B14BFB5EB040C00213CBFC943F61BB6
:101DF0004FEA17444EEA8E0E27EA04454FEA1C4785
:101E000004FB07622CEA074C05FB07F70CFB05F601
:101E100004FB0CFC16EB074642EB174216EB0C4694
:101E200042EB1C421BEB060658EB0202414146EA1C
:101E30009E0601D5BDE80189B619524141EB010169
:101E4000A3F10103BDE801894FEA14454FEA1147A8
:101E500024EA054621EA074C05FB07F406FB07F7D1
:101E60000CFB06F105FB0CFC11EB074144EB17449E
:101E70004FEA124711EB0C4144EB1C4422EA074C99
:101E800005FB07F206FB07F70CFB06F605FB0CFC4F
:101E900016EB074642EB174216EB0C4642EB1C458D
:101EA0006A1854F1000148BF7047B619524141EB1E
:101EB0000101A3F10103704795F0000F37D04FEAFD
:101EC00011424FEA144721EA024624EA074C02FB7A
:101ED00007F106FB07F70CFB06F402FB0CFC14EB06
:101EE000074441EB17414FEA154714EB0C4441EB13
:101EF0001C4125EA074C02FB07F506FB07F70CFB24
:101F000006F602FB0CFC16EB074645EB174516EBF5
:101F10000C4645EB1C42121951F1000148BF7047B5
:101F2000B619524141EB0101A3F1010370474FEA99
:101F300014454FEA114724EA054621EA074C05FB00
:101F400007F106FB07F70CFB06F24FF0000605FB56
:101F50000CFC12EB074241EB174112EB0C4251EB28
:101F60001C4148BF7047921841EB0101A3F10103E6
:101F70007047000010B52DED088BB0EE40AAF0EED2
:101F800060AAB0EE41BAB0EE618AF0EE428AB0EEDD
:101F9000629AF0EE439AB0EE4B1AF0EE6A0AB0EE97
:101FA0004A0A0EF0BFFC3348C0ED049A01203249C2
:101FB000C87122E031480EF0A5FA304811F0BAF8A5
:101FC0002E480EF075FC2E48D0ED631AB0EE611A63
:101FD000D0ED3F1AF0EE610AD0ED1B1AB0EE610AA7
:101FE000264801F0A7FA2748007800B909E02348FD
:101FF00010F028FE012011F057F91F48C079012880
:10200000D8D000BFB0EE491AF0EE680AB0EE480A28
:102010000EF088FC01201849C87122E017480EF024
:1020200071FA164811F086F814480EF041FC144875
:10203000D0ED631AB0EE611AD0ED3F1AF0EE610AEE
:10204000D0ED1B1AB0EE610A0C4801F073FA0D488E
:10205000007800B909E0094810F0F4FD012011F002
:1020600023F90548C0790128D8D000BF0120BDEC74
:10207000088B10BD90340020882D00209030002067
:10208000A83700208C01002010B52DED028B9FEDAC
:10209000263ADFED262A9FED252ADFED241A9FED53
:1020A000231ADFED220A9FED210AFFF763FF204884
:1020B00090ED060A10EE101A084614F0CDF941EC26
:1020C000180B9FED1C0B53EC102B13F0C9FE1FD205
:1020D000174890ED060AFFEE000AB4EE600AF1EE32
:1020E00010FA02D1BDEC028B10BD9FED0F3ADFED6F
:1020F0000F2A9FED0E2ADFED0D1A9FED101ADFED6E
:102100000B0A9FED0A0AFFF735FFC82011F0CCF843
:102110000B480EF0F7F90A4811F00CF808480EF0D9
:10212000C7FB00BFDEE700000000704200000000B7
:10213000D8340020CDCCCCCCCCCCDC3F00008C42C1
:102140009030002010B52DED028B9FED253ADFED8C
:10215000252A9FED242ADFED231A9FED221ADFEDB9
:10216000210A9FED200AFFF705FF1F4890ED060AA0
:1021700010EE101A084614F06FF941EC180B9FEDA1
:102180001B0B53EC102B13F06BFE21D2164890ED75
:10219000060AFFEE000AB4EE600AF1EE10FA02D170
:1021A000BDEC028B10BD104890F8210001280FD122
:1021B0009FED0B3ADFED0B2A9FED0A2ADFED091A9E
:1021C0009FED0C1ADFED070A9FED060AFFF7D2FE1E
:1021D00009480EF097F9084810F0ACFF00BFDFE7A0
:1021E0000000BE4200000000D83400209A9999995E
:1021F0009999D93F00008C4290300020B7EE000A38
:1022000080ED000A9FED060A80ED010A9FED040AA9
:1022100080ED020A9FED020A80ED030A704700007C
:10222000000000002DE9F0412DED028B0746B0EED5
:10223000408A0C4615461E46D6ED024AB0EE644A68
:10224000D6ED014AF0EE643AD6ED004AB0EE643ABB
:10225000D5ED024AF0EE642AD5ED014AB0EE642ACB
:10226000D5ED004AF0EE641AD4ED024AB0EE641ADD
:10227000D4ED014AF0EE640AD4ED004AB0EE640AEF
:10228000384606F05FFFBDEC028BBDE8F081000030
:1022900091ED000ADFED580A20EE200ADFED570A23
:1022A00080EE201A80ED001A91ED020ADFED520A4D
:1022B00020EE200ADFED510A80EE201A80ED011A8F
:1022C00091ED010ADFED4C0A20EE200ADFED4B0A0A
:1022D00080EE201A80ED021A494A127862B9012272
:1022E000474B1A7090ED000A464A82ED000A90EDC5
:1022F000020A454A82ED000A90ED000A414AD2EDF9
:10230000000A30EE600ADFED410AB4EEE00AF1EEB9
:1023100010FA07DD90ED060AF7EE000A30EE600ACB
:1023200080ED060A90ED000A364AD2ED000A30EE42
:10233000600ADFED370AB4EEE00AF1EE10FA07D2D8
:1023400090ED060AF7EE000A30EE200A80ED060A4C
:1023500090ED020A2C4AD2ED000A30EE600ADFED61
:102360002B0AB4EEE00AF1EE10FA07DD90ED080A50
:10237000F7EE000A30EE600A80ED080A90ED020ADE
:10238000214AD2ED000A30EE600ADFED210AB4EEF8
:10239000E00AF1EE10FA07D290ED080AF7EE000A13
:1023A00030EE200A80ED080A90ED000AD0ED060A12
:1023B0009FED181A00EE810A80ED030A90ED020AE3
:1023C000D0ED080A9FED131A00EE810A80ED050A90
:1023D00090ED010A80ED040A90ED000A094A82EDB1
:1023E000000A90ED020A084A82ED000A90ED010A07
:1023F000094A82ED000A704700003443DB0F494070
:102400004501002048010020500100200000E64264
:102410000000E6C20000B4434C01002010B50122C8
:102420001021024803F06CF810BD000000000240CB
:1024300010B500221021024803F062F810BD000020
:10244000000002407047000010B50122114602480A
:1024500003F056F810BD00000004024010B5002241
:102460000121024803F04CF810BD000000040240B6
:1024700010B543781B021BB20478234300EE103AD8
:10248000B8EEC01A1C4BD3ED001A21EE211A81EDD3
:10249000001AC3781B021BB28478234300EE103A63
:1024A000B8EEC01A144BD3ED001A21EE211A81EDBB
:1024B000011A43791B021BB20479234300EE103A40
:1024C000B8EEC01A0C4BD3ED001A21EE211A81EDA3
:1024D000021A037A1B04C47943EA04238479234350
:1024E00000EE903AB8EE601ADFED041A21EE211AE0
:1024F00082ED001A10BD0000AC01002000401C421B
:10250000704710B50446204610F0CEFE10BD10B541
:10251000044620460FF052FC10BD00004278120223
:1025200012B203781A4300EE102AF8EEC00A144AD9
:1025300092ED001A60EE810AC1ED000AC278120223
:1025400012B283781A4300EE102AF8EEC00A0C4A41
:1025500092ED001A60EE810AC1ED010A4279120281
:1025600012B203791A4300EE102AF8EEC00A044AA8
:1025700092ED001A60EE810AC1ED020A7047000078
:10258000B001002010B50024FFF75CFFFFF7B8FF93
:102590000EF06CFA10B144F0800402E00EF0CCF9B9
:1025A00004430EF05BFC10B144F0400402E00EF076
:1025B000DBFB0443204610BD2DE9FC4105460E46D9
:1025C0001746002000900190FFF732FF922000F0A4
:1025D000D1F806226946122000F0ACF8FFF71EFF82
:1025E0009DF80100000200B29DF8001040EA0104CD
:1025F00000EE104AB8EEC00A4C48D0ED000A20EEBA
:10260000200A86ED000A9DF80300000200B29DF842
:10261000021040EA010400EE104AB8EEC00A434836
:10262000D0ED000A20EE200A86ED010A9DF8050093
:10263000000200B29DF8041040EA010400EE104AC6
:10264000B8EEC00A3948D0ED000A20EE200A86ED27
:10265000020AFFF703FF08226946002000F06AF82B
:10266000FFF7F2FE9DF800000F2838D19DF8030017
:10267000000200B29DF8021040EA010400EE104A88
:10268000B8EEC00A2A48D0ED000A20EE200A85EDF7
:10269000000A9DF80500000200B29DF8041040EA0F
:1026A000010400EE104AB8EEC00A2148D0ED000A3D
:1026B00020EE200A85ED010A9DF80700000200B215
:1026C0009DF8061040EA010400EE104AB8EEC00A78
:1026D0001748D0ED000A20EE200A85ED020AFFF728
:1026E000A7FEA22000F046F802226946222000F050
:1026F00021F8FFF793FE9DF80000C0009DF801103F
:1027000040EA6114B4F5806F02DBA4F5006004B206
:1027100000EE104AF8EEC00AB4EE001AB3EE070A53
:1027200000EE810A87ED000ABDE8FC81AC010020C3
:10273000B001002070B506460C46154646F08000F4
:1027400000F018F806E0552000F014F82070641C22
:10275000681EC5B2002DF6D170BD70B504460D4699
:1027600044F0800000F006F8552000F003F82870CF
:1027700070BD000001B582B04FF47A70012301AA48
:1027800002A90090024804F0BBFC9DF804000EBDB5
:102790004C0A002010B502461378DB00547843EA57
:1027A0006410B0F5806F02DBA0F5006318B200EE94
:1027B000100AF8EEC00AB4EE001AB3EE070A00EEF3
:1027C000810A81ED000A10BD70B505460C46284609
:1027D000FFF7D0FF2046FFF7CDFF70BD00BFFEE73B
:1027E00010B5024801F0A3FE10BD0000A8090020AA
:1027F00010B5024801F09BFE10BD0000D00900207A
:10280000F8B507460C4615461E464FF400700D49B4
:10281000086000208860C86008200861380A0A49FA
:1028200008704F70200A8870CC70280A08714D71AA
:10283000300A8871CE716B460A460249034801F09E
:10284000AFFCF8BD942C002080010020A8090020D6
:102850000346042B15D007DC7BB1012B0ED0022BD5
:102860000DD0032B12D10BE0202B0BD0212B0AD043
:10287000222B09D0232B09D107E008E007E006E06E
:1028800005E004E003E002E001E000E000BF00BF7B
:10289000002070470020704710B500220449054809
:1028A0000AF03EFF044903480AF02CFF002010BD47
:1028B0006C2100208C0D00206C19002070B504469E
:1028C0000D46214605480AF01DFF04480AF0EAFEBD
:1028D000204607F08DFB002070BD00008C0D00200D
:1028E00010B503460C460021084610BD70B52DED0D
:1028F000028B82B006460C46B0EE408A9FED190A64
:10290000F0EE408A0C20B3EE021AFBEE020AB0EEA3
:10291000480A0FF00EFE85B21348046000201249E9
:102920008860C8600820086100208DF800008DF8DC
:1029300001008DF802008DF803008DF804008DF879
:10294000050040EA25208DF80600E8B28DF8070062
:1029500001236A46304601F023FC02B0BDEC028B35
:1029600070BD000000000000DC2C002010B5024803
:1029700002F05EFA10BD00002C0D002010B5FE48DC
:10298000C06C0068FD49884276D9FC48543800681C
:10299000F949C96C0968FA4A914201D1202169E0DC
:1029A000F549C96C0968F54A483A914201D120219C
:1029B00060E0F149C96C0968F14A6032914201D185
:1029C000202157E0EC49C96C0968EC4A1832914261
:1029D00001D120214EE0E849C96C0968E84A183263
:1029E000914201D1C91445E0E349C96C0968E34A41
:1029F000303A914201D1C9143CE0DF49C96C096801
:102A0000DF4A7832914201D1C91433E0DA49C96C06
:102A10000968DA4A3032914201D1C9142AE0D64914
:102A2000C96C0968D64A3032914202D14FF4001184
:102A300020E0D149C96C0968D04A183A914202D1C4
:102A40004FF4001116E0CC49C96C0968CC4A9032A9
:102A5000914202D14FF400110CE0C749C96C0968DA
:102A6000C64A4832914203D14FF4001102E003E01C
:102A70004FF00061084070E1BF48C06C0068C04979
:102A8000A831884276D9BD4858380068BA49C96C1F
:102A90000968BB4A914201D1202169E0B649C96C5D
:102AA0000968B64A483A914201D1202160E0B24912
:102AB000C96C0968B24A6032914201D1202157E0C5
:102AC000AD49C96C0968AD4A1832914201D1202143
:102AD0004EE0A949C96C0968A94A1832914201D14E
:102AE000C91445E0A449C96C0968A44A303A914226
:102AF00001D1C9143CE0A049C96C0968A04A7832E8
:102B0000914201D1C91433E09B49C96C09689B4AC1
:102B10003032914201D1C9142AE09749C96C096841
:102B2000974A3032914202D14FF4001120E092498D
:102B3000C96C0968914A183A914202D14FF40011C8
:102B400016E08D49C96C09688D4A9032914202D1D4
:102B50004FF400110CE08849C96C0968874A483273
:102B6000914203D14FF4001102E003E04FF0006105
:102B70000840F2E08048C06C0068814948318842D2
:102B800076D97F48103840687B49C96C09687C4A0F
:102B9000914201D1202169E07749C96C0968774ADF
:102BA000483A914201D1202160E07349C96C09681B
:102BB000734A6032914201D1202157E06E49C96CBD
:102BC00009686E4A1832914201D120214EE06A49CB
:102BD000C96C09686A4A1832914201D1C91445E0AA
:102BE0006549C96C0968654A303A914201D1C914F6
:102BF0003CE06149C96C0968614A7832914201D16F
:102C0000C91433E05C49C96C09685C4A30329142AE
:102C100001D1C9142AE05849C96C0968584A3032B0
:102C2000914202D14FF4001120E05349C96C096868
:102C3000524A183A914202D14FF4001116E04E491F
:102C4000C96C09684E4A9032914202D14FF400118A
:102C50000CE04949C96C0968484A4832914203D19D
:102C60004FF4001102E003E04FF00061084074E00F
:102C70004348103800684049C96C0968404A91428D
:102C800001D1202168E03C49C96C09683B4A483AB7
:102C9000914201D120215FE03749C96C0968384A67
:102CA0006032914201D1202156E03349C96C096854
:102CB000324A1832914201D120214DE02E49C96C8F
:102CC00009682F4A1832914201D1C91444E02A49B7
:102CD000C96C0968294A303A914201D1C9143BE0D4
:102CE0002549C96C0968264A7832914201D1C91434
:102CF00032E02149C96C0968204A3032914201D141
:102D0000C91429E01C49C96C09681D4A3032914236
:102D100002D14FF400111FE01749C96C0968174A26
:102D2000183A914202D14FF4001115E01249C96CD2
:102D30000968134A9032914202D14FF400110BE01E
:102D40000D49C96C09680D4A4832914202D14FF4CD
:102D5000001101E04FF00061084000286FD00648E4
:102D6000C06C0068054988427BD90348C06C006884
:102D70000349884208D105E04C0A0020586402400B
:102D800010600240202068E0FE48C06C0068FE49E8
:102D9000884201D1202060E0FA48C06C0068FB49FD
:102DA000884201D1202058E0F648C06C0068F649FE
:102DB0006031884201D120204FE0F248C06C0068A9
:102DC000F2494839884201D1C01446E0ED48C06C50
:102DD0000068ED491831884201D1C0143DE0E9484E
:102DE000C06C0068E9491831884201D1C01434E050
:102DF000E448C06C0068E4497831884201D1C014CD
:102E00002BE0E048C06C0068E0493039884202D1CC
:102E10004FF4001021E0DB48C06C0068DA49303123
:102E2000884202D14FF4001017E0D648C06C006809
:102E3000D6493031884204D14FF400100DE0DFE173
:102E40000FE0D048C06C0068CF499031884202D171
:102E50004FF4001001E04FF00060CB49091F0860FB
:102E60006AE1C848C06C0068C8494831884274D9D2
:102E7000C448C06C0068C5496039884201D120202F
:102E800066E0C048C06C0068BF49884201D120207C
:102E90005EE0BC48C06C0068BC49884201D120207B
:102EA00056E0B848C06C0068B7496031884201D12B
:102EB00020204DE0B348C06C0068B44948398842CE
:102EC00001D1C01444E0AF48C06C0068AE4918316D
:102ED000884201D1C0143BE0AA48C06C0068AB49ED
:102EE0001831884201D1C01432E0A648C06C006895
:102EF000A5497831884201D1C01429E0A148C06CAD
:102F00000068A2493039884202D14FF400101FE016
:102F10009C48C06C00689C493031884202D14FF413
:102F2000001015E09748C06C00689849303188421D
:102F300002D14FF400100BE09248C06C0068924937
:102F40009031884202D14FF4001001E04FF0006050
:102F50008D4908390860EFE0FFE78A48C06C0068D7
:102F60008A491839884274D98648C06C00688749F4
:102F70006039884201D1202066E08248C06C006838
:102F80008149884201D120205EE07E48C06C006803
:102F90007E49884201D1202056E07A48C06C006802
:102FA00079496031884201D120204DE07548C06CDC
:102FB000006876494839884201D1C01444E071481C
:102FC000C06C006870491831884201D1C0143BE0E0
:102FD0006C48C06C00686D491831884201D1C0143A
:102FE00032E06848C06C006867497831884201D196
:102FF000C01429E06348C06C0068644930398842D5
:1030000002D14FF400101FE05E48C06C00685E49BA
:103010003031884202D14FF4001015E05948C06C9D
:1030200000685A493031884202D14FF400100BE059
:103030005448C06C006854499031884202D14FF422
:10304000001001E04FF0006050497039C86073E033
:10305000FFE74C48C06C00684C496039884201D198
:10306000202066E04748C06C00684749884201D18B
:1030700020205EE04348C06C00684449884201D18A
:10308000202056E03F48C06C00683F4960318842CC
:1030900001D120204DE03B48C06C00683B494839D5
:1030A000884201D1C01444E03648C06C00683649FB
:1030B0001831884201D1C0143BE03248C06C00682E
:1030C00032491831884201D1C01432E02D48C06C19
:1030D00000682D497831884201D1C01429E029487F
:1030E000C06C006829493039884202D14FF4001081
:1030F0001FE02448C06C006823493031884202D167
:103100004FF4001015E01F48C06C00681F493031B3
:10311000884202D14FF400100BE01A48C06C0068DE
:1031200019499031884202D14FF4001001E04FF06C
:1031300000601649703988601548007800F0020078
:1031400078B11348007820F0020011490870084651
:10315000007840F004000870012211460D4802F08A
:10316000CFF90D48007800F00200E0B10A4800787D
:1031700020F00200084908700846007840F004007A
:1031800008700BE04C0A002010640240706002409E
:10319000D200002000040240D300002001221021B0
:1031A000184802F0ADF91848007800F0020078B134
:1031B0001548007820F0020013490870084600788E
:1031C00040F004000870012210210E4802F098F926
:1031D0000FF006FB0D48007800F0040080B10B48AA
:1031E000007820F00400094908700846007840F093
:1031F000080008700648006840F0010004490860B3
:1032000010BD000000000240D4000020D2000020C9
:10321000103C014010B5024801F00AFE10BD00004C
:10322000CC0C002001680A4BCAB2103AA3FB023250
:103230001209084B9B5CC365032A04D96FF309018B
:10324000091D816502E06FF309018165806D70479A
:10325000ABAAAAAA02670108014600208A6A8B6904
:10326000002B0FD0B3F5005F1DD08AB3012A30D0F8
:10327000022A2ED0032A04D1C96A11F0807F00D01F
:10328000012070471AB1012A07D0022AF9D1C96A70
:1032900011F0807FF5D001207047C96AB1F1C07F7D
:1032A000FAD1012070475AB1012A0BD0022A07D067
:1032B000032AF7D1C96AB1F1C07FF3D10120704769
:1032C00001207047C96A11F0807FFAD00120704751
:1032D000FFE70120704710B4D0F800C0DCF80040D0
:1032E00024F48024CCF80040D0F800C0CCF804309E
:1032F0008368402B05D0036899600068C26010BCE9
:10330000704703689A600068C16010BC7047000095
:103310007CB505460C461048046000200E498860C4
:10332000C86008200861FF208DF800008DF80100BA
:103330008DF802008DF803008DF804008DF805006B
:103340008DF80600FC208DF8070001236A46284608
:1033500000F026FF7CBD0000AC2C00200A78027033
:103360004A7842708A788270CA78C2700A7902718B
:103370004B7943718B798371CB79C3710A7A02726D
:103380004B7A43728B7A8372CB7AC3720A7B027355
:103390004B7B43738B7B8373CB7BC3730A7C02743D
:1033A0004B7C43748B7C8374CB7CC3740A7D027525
:1033B0004B7D43758B7D8375CB7DC3754C4A92EDF8
:1033C000020A82ED030A92ED060A82ED070A90EDE9
:1033D000000A82ED000A90ED010A82ED010A90EDEB
:1033E000020A82ED020A90ED030A82ED040A90EDD2
:1033F000040A82ED050A90ED050A82ED060A92EDB7
:10340000000AB5EEC00AF1EE10FA0ED192ED010AF3
:10341000B5EEC00AF1EE10FA07D1BFEE000A82ED58
:10342000020A0022324B83F82020314A92ED040A2E
:10343000B5EEC00AF1EE10FA0ED192ED050AB5EE26
:10344000C00AF1EE10FA07D1BFEE000A82ED060ABB
:103450000022274B83F82120254A92ED020AFFEE35
:10346000000AB4EE600AF1EE10FA1AD092ED030AE7
:10347000FFEE000AB4EE600AF1EE10FA11D092ED00
:10348000020AD2ED030AB4EEE00AF1EE10FA04DD0E
:103490000222174B83F8202003E00122144B83F80B
:1034A0002020134A92ED060AFFEE000AB4EE600AED
:1034B000F1EE10FA1AD092ED070AFFEE000AB4EE10
:1034C000600AF1EE10FA11D092ED060AD2ED070A69
:1034D000B4EEE00AF1EE10FA04DD0222044B83F8A8
:1034E000212003E00122024B83F8212070470000D5
:1034F000D8340020704710B5012001F0DFFE10BD68
:1035000010B54FF4805001F0D9FE4FF4005001F097
:10351000D5FE10BD10B5082001F0D0FE10BD10B5CD
:10352000102001F0CBFE10BD10B5202001F0C6FE2A
:1035300010BD704701B52DED040BC2B09DED420AE0
:10354000DFEDFE0A20EE200ADFEDFD0A80EE201AF4
:103550008DED421A9DED430ADFEDF80A20EE200AB8
:10356000DFEDF70A80EE201A8DED431A9DED440A37
:10357000DFEDF20A20EE200ADFEDF10A80EE201ADC
:103580008DED441A449812F067FFCDE90A019DEDD4
:103590000A0B0CF03DFA8DED0C0B9FEDEA0B53EC92
:1035A000102B9DED0C0B51EC100B12F095FC9FEDC8
:1035B000E70B53EC102BCDE90E019DED0E0B51ECFA
:1035C000100B12F0ABF99FEDE30B53EC102BCDE990
:1035D00010019DED100B51EC100B12F053FE4191B8
:1035E0004090449812F038FFCDE90E019DED0E0B8E
:1035F0000CF07EFA8DED100B9FEDD20B53EC102BDF
:103600009DED100B51EC100B12F066FCCDE93E0164
:10361000429812F021FFCDE908019DED080B0CF056
:10362000F7F98DED0A0B9FEDC70B53EC102B9DEDB9
:103630000A0B51EC100B12F04FFC9FEDC40B53EC36
:10364000102BCDE90C019DED0C0B51EC100B12F081
:1036500065F99FEDC00B53EC102BCDE90E019DEDEC
:103660000E0B51EC100B12F00DFE9FEDBC0B53EC4A
:10367000102BCDE910019DED100B51EC100B12F049
:103680002BFCCDE93C01429812F0E6FECDE90601A3
:103690009DED060B0CF0BCF98DED080B9FEDA90B11
:1036A00053EC102B9DED080B51EC100B12F014FC99
:1036B0009FEDA60B53EC102BCDE90A019DED0A0BF3
:1036C00051EC100B12F02AF99FEDA20B53EC102BCA
:1036D000CDE90C019DED0C0B51EC100B12F0D2FD5D
:1036E0009FEDA00BCDE910010CF066FA8DED0C0BEF
:1036F0009FED9E0B53EC102B9DED0C0B51EC100B22
:1037000012F0C0F9CDE90E019DED100B53EC102B1A
:103710009DED0E0B51EC100B12F0DEFBCDE93A01E2
:10372000429812F099FECDE90E019DED0E0B0CF0C2
:10373000DFF98DED100B9FED830B53EC102B9DEDFE
:10374000100B51EC100B12F0C7FBCDE93801439878
:1037500012F082FECDE908019DED080B0CF058F93E
:103760008DED0A0B9FED770B53EC102B9DED0A0BA3
:1037700051EC100B12F0B0FB9FED740B53EC102BBF
:10378000CDE90C019DED0C0B51EC100B12F0C6F8BD
:103790009FED700B53EC102BCDE90E019DED0E0B40
:1037A00051EC100B12F06EFD9FED6C0B53EC102BD7
:1037B000CDE910019DED100B51EC100B12F08CFBBC
:1037C000CDE93601439812F047FECDE906019DEDA3
:1037D000060B0CF01DF98DED080B9FED5A0B53EC09
:1037E000102B9DED080B51EC100B12F075FB9FEDAB
:1037F000570B53EC102BCDE90A019DED0A0B51EC50
:10380000100B12F08BF89FED530B53EC102BCDE9FE
:103810000C019DED0C0B51EC100B12F033FD9FEDE4
:10382000510BCDE910010CF0C7F98DED0A0B9FED9E
:103830004F0B53EC102B9DED0A0B51EC100B12F0BB
:1038400021F9CDE90C019DED0C0B51EC100B12F0A0
:1038500027F8CDE90E019DED100B53EC102B9DEDDB
:103860000E0B51EC100B12F037FBCDE934014398ED
:1038700012F0F2FDCDE90E019DED0E0B0CF038F9C2
:103880008DED100B9FED2F0B53EC102B9DED100BBE
:1038900051EC100B12F020FBCDE932019DED3A0BFB
:1038A00053EC102B9DED3A0B51EC100B12F014FB66
:1038B000CDE90E019DED380B53EC102B9DED380B2F
:1038C00051EC100B12F008FBCDE90A019DED3E0B07
:1038D00053EC102B9DED3E0B51EC100B12F0FCFA4B
:1038E000CDE906019DED3C0B53EC102B9DED3C0BFF
:1038F00051EC100B12F0F0FACDE902019DED400BF6
:1039000053EC102B9DED400B51EC100B12F0E4FA30
:10391000CDE900019DED020B53EC102B9DED000B4A
:1039200051EC100B12F0AEFCCDE904019DED060B3D
:1039300053EC102B9DED040B1CE00000DB0F494005
:10394000000034430000000000C06240000000A0FE
:1039500082415640000000A057BE574000000000C2
:103960000000E0BF00000000000008400000000070
:103970000000004051EC100B11F0D0FFCDE9080120
:103980009DED0A0B53EC102B9DED080B51EC100B29
:1039900012F078FCCDE90C019DED0E0B53EC102BD1
:1039A0009DED0C0B51EC100B12F06CFC9FEDFE0B1F
:1039B00053EC102BCDE910019DED100B51EC100BC9
:1039C00012F08AFACDE930019DED400B53EC102B3B
:1039D0009DED3C0B51EC100B12F054FCCDE92E0187
:1039E0009DED3E0B53EC102B9DED380B51EC100B65
:1039F00012F048FCCDE92C019DED340B53EC102B5B
:103A00009DED340B51EC100B12F066FACDE90E016E
:103A10009DED320B53EC102B9DED320B51EC100B46
:103A200012F05AFACDE90A019DED3E0B53EC102B32
:103A30009DED3E0B51EC100B12F04EFACDE9060154
:103A40009DED360B53EC102B9DED360B51EC100B0E
:103A500012F042FACDE902019DED400B53EC102B20
:103A60009DED400B51EC100B12F036FACDE9000140
:103A70009DED020B53EC102B9DED000B51EC100B48
:103A800012F000FCCDE904019DED060B53EC102B68
:103A90009DED040B51EC100B11F040FFCDE9080136
:103AA0009DED0A0B53EC102B9DED080B51EC100B08
:103AB00012F0E8FBCDE90C019DED0E0B53EC102B41
:103AC0009DED0C0B51EC100B12F0DCFB9FEDB60BD7
:103AD00053EC102BCDE910019DED100B51EC100BA8
:103AE00012F0FAF9CDE92A019DED400B53EC102BB1
:103AF0009DED360B51EC100B12F0C4FBCDE9280103
:103B00009DED3E0B53EC102B9DED320B51EC100B49
:103B100012F0B8FBCDE926019DED3A0B53EC102BCA
:103B20009DED280B51EC100B12F0D6F9CDE90C01EC
:103B30009DED340B53EC102B9DED2E0B51EC100B27
:103B400012F0CAF9CDE90A019DED0C0B53EC102BD4
:103B50009DED0A0B51EC100B12F094FBCDE9100116
:103B60009DED260B53EC102B9DED3A0B51EC100BF9
:103B700012F0B2F9CDE90C019DED2C0B53EC102B9A
:103B80009DED340B51EC100B12F0A6F9CDE90A01B2
:103B90009DED0C0B53EC102B9DED0A0B51EC100B13
:103BA00012F070FBCDE90E019DED100B53EC102BC4
:103BB0009DED0E0B51EC100B11F064FFCDE92401CB
:103BC0009DED3A0B53EC102B9DED280B51EC100B97
:103BD00012F082F9CDE90C019DED340B53EC102B62
:103BE0009DED2E0B51EC100B12F076F9CDE90A0188
:103BF0009DED0C0B53EC102B9DED0A0B51EC100BB3
:103C000012F040FBCDE910019DED300B53EC102B71
:103C10009DED340B51EC100B12F05EF9CDE90C0167
:103C20009DED2A0B53EC102B9DED3A0B51EC100B34
:103C300012F052F9CDE90A019DED0C0B53EC102B5B
:103C40009DED0A0B51EC100B12F01CFBCDE90E019F
:103C50009DED100B53EC102B9DED0E0B51EC100B4A
:103C600011F010FFCDE922019DED340B53EC102B28
:103C70009DED2E0B51EC100B12F02EF9CDE90C013D
:103C80009DED3A0B53EC102B9DED280B51EC100BD6
:103C900012F022F9CDE90A019DED0C0B53EC102B2B
:103CA0009DED0A0B51EC100B12F0ECFACDE910016E
:103CB0009DED260B53EC102B9DED2E0B51EC100BB4
:103CC00012F00AF9CDE90C019DED2C0B53EC102BF1
:103CD0009DED280B51EC100B12F0FEF8CDE90A0116
:103CE0009DED0C0B53EC102B9DED0A0B51EC100BC2
:103CF00012F0C8FACDE90E019DED100B53EC102B1C
:103D00009DED0E0B51EC100B11F0BCFECDE9200126
:103D10009DED340B53EC102B9DED2E0B51EC100B45
:103D200012F0DAF8CDE90C019DED3A0B53EC102BB3
:103D30009DED280B51EC100B12F0CEF8CDE90A01E5
:103D40009DED0C0B53EC102B9DED0A0B51EC100B61
:103D500012F098FACDE910019DED300B53EC102BC9
:103D60009DED280B51EC100B12F0B6F8CDE90C01CB
:103D70009DED2A0B53EC102B9DED2E0B51EC100BEF
:103D800012F0AAF8CDE90A019DED0C0B53EC102BB3
:103D90009DED0A0B51EC100B12F074FACDE90E01F7
:103DA0009DED100B04E00000000000000000E03F6B
:103DB00053EC102B9DED0E0B51EC100B11F062FE2D
:103DC000CDE91E019DED200B53EC102B9DED200B3A
:103DD00051EC100B12F080F8CDE90E019DED240B93
:103DE00053EC102B9DED240B51EC100B12F074F8DA
:103DF000CDE90C019DED0E0B53EC102B9DED0C0B42
:103E000051EC100B11F08AFD9FEDC50B53EC102BFC
:103E1000CDE910019DED100B51EC100B11F07EFD62
:103E2000CDE91C019DED220B53EC102B9DED400BB9
:103E300051EC100B12F026FACDE90C019DED240B8C
:103E400053EC102B9FEDB80B51EC100B12F044F813
:103E5000CDE90A019DED0C0B53EC102B9DED0A0BE7
:103E600051EC100B12F038F8CDE910019DED3E0B2E
:103E700053EC102B9FEDAC0B51EC100B12F02CF807
:103E8000CDE90C019DED200B53EC102B9FEDA60B03
:103E900051EC100B12F020F8CDE908019DED1E0B3E
:103EA00053EC102B9DED080B51EC100B12F014F895
:103EB000CDE90A019DED0C0B53EC102B9DED0A0B87
:103EC00051EC100B11F02AFDCDE90E019DED100B08
:103ED00053EC102B9DED0E0B51EC100B12F0D2F9A0
:103EE000CDE91A019DED3E0B53EC102B9DED3E0BE1
:103EF00051EC100B11F0F0FFCDE90E019DED1E0B02
:103F000053EC102B9DED1E0B51EC100B11F0E4FF48
:103F1000CDE90A019DED220B53EC102B9DED400BDA
:103F200051EC100B12F0AEF9CDE906019DED220B1C
:103F300053EC102B9DED400B51EC100B12F0A2F93D
:103F4000CDE904019DED060B53EC102B9DED040B08
:103F500051EC100B11F0C0FFCDE908019DED0A0BEB
:103F600053EC102B9DED080B51EC100B11F0D6FC0F
:103F7000CDE90C019DED0E0B53EC102B9DED0C0BC0
:103F800051EC100B11F0CAFC9FED690B53EC102B98
:103F9000CDE910019DED100B51EC100B12F072F9F0
:103FA000CDE918019DED1C0B53EC102B9FED5E0B22
:103FB00051EC100B11F090FFCDE910019DED1C0BA1
:103FC00053EC102B9FED5C0B51EC100B11F084FFA8
:103FD000CDE902019DED180B53EC102B9DED020B6A
:103FE00051EC100B11F078FFCDE906019DED1A0B95
:103FF00053EC102B9DED1A0B51EC100B11F06CFFD4
:10400000CDE904019DED060B53EC102B9DED040B47
:1040100051EC100B12F036F9CDE908019DED080BBB
:104020000BF0CAFD8DED0C0B9DED1A0B51EC100B36
:1040300011F036FCCDE90A019DED0C0B53EC102B71
:104040009DED0A0B51EC100B12F01CF9CDE90E019D
:104050009DED100B53EC102B9DED0E0B51EC100B46
:1040600011F010FDCDE916019DED160B53EC102B50
:104070009DED240B51EC100B11F02EFFCDE910013A
:104080009DED220B53EC102B9DED100B51EC100B02
:1040900011F044FCCDE914019DED160B53EC102BEF
:1040A0009DED200B51EC100B11F016FFCDE9100126
:1040B0009DED1E0B53EC102B9DED100B51EC100BD6
:1040C00011F02CFCCDE912019DED140B51EC100BFD
:1040D00011F0F2FB4699C1F8A0039DED120B51ECD3
:1040E000100B11F0E9FB01464698C0F8A4139FEDB0
:1040F000140B53EC102B9DED160B51EC100B11F023
:104100000DFCCDE910019DED100B51EC100B11F0E1
:10411000D3FB01464698C0F8A81347B000BD000085
:10412000000000000000F03F000000000000004020
:104130000000000000F9D540000000000000104021
:104140000000000000006E4070B50A480468001DC1
:104150000568001D0668344454B10822064920460B
:1041600004F022FB042204491031284604F01CFB11
:1041700070BD0000107AFF1F5A00002090F8202028
:10418000012A07D0022A05D0416A41F48021416208
:104190000120704700684269114341610020704767
:1041A00070B490F82040D0F800C0DCF808C0012CB2
:1041B00008D0022C06D0416A41F48021416270BCD3
:1041C000012070470CF080640CF000652C4302D194
:1041D0001CF0805F55D0CCF3016C012404FA0CF480
:1041E0001C608B684FF4C0749BB1CD6804EB0C1657
:1041F0002B434D6843EAC5030568AB514FF4C273C6
:10420000066803EB0C130D69F550097D012909D0EF
:104210000DE00D88CB6804EB0C1643EA45530568A6
:10422000AB51EBE70168CD5845F48075CD5011795D
:10423000D379557941EA036193791B0443EA052355
:1042400019434FF4C675036805EB0C1559511178E5
:10425000D37841EA0361937852781B0443EA02223F
:1042600011434FF4C473026803EB0C13D15001687F
:1042700004EB0C100A5842F001020A5070BC0020F6
:104280007047416A41F40011416270BC01207047DF
:1042900090F82020012A07D0022A05D0416A41F473
:1042A00080214162012070474248D0F8002242F04C
:1042B0000102C0F80022D0F8002222F47C52C0F89B
:1042C0000022D0F800224B6A42EA0322C0F8002202
:1042D0000A7D012302F01F0203FA02F2D0F81C3219
:1042E0009343C0F81C32CB69D3B9D0F80C32934356
:1042F000C0F80C32B1F80CC04B686CF31F43D1F816
:1043000014C000EBCC0CCCF84032B1F808C00B68FC
:104310006CF31F43D1F814C000EBCC0CCCF8443242
:10432000CB69012B1AD1D0F80C321343C0F80C32F0
:10433000B1F800C04B686CF31F43D1F814C000EB18
:10434000CC0CCCF84032B1F808C0CB686CF31F43FA
:10435000D1F814C000EBCC0CCCF844328B697BB1A3
:10436000D0F804321343C0F804320B6973B1D0F8AB
:1043700014321343C0F81432096A01290CD010E03A
:10438000D0F804329343C0F80432EEE7D0F8143288
:104390009343C0F81432EFE7D0F81C121143C0F871
:1043A0001C12D0F8001221F00101C0F80012002008
:1043B0007047000000640040704730B490F820C09F
:1043C000BCF1010F09D0BCF1020F06D0416A41F4E3
:1043D0008021416230BC0120704739B1D0F800C063
:1043E000DCF810C01CF0030F33D006E0D0F800C09A
:1043F000DCF80CC01CF0030F24D04FF4D87C046808
:104400000CEB011C54F80C4004F0040494603CB321
:10441000046854F80C40E4085460046854F80CC074
:104420000CF0020CC2F80CC04FF4DA7C04680CEB00
:10443000011C54F80C5005F00F05082D16D3082464
:10444000146118E0416A41F40011416230BC01205E
:104450007047416A41F40011416230BC012070474D
:10446000046854F80C40640D1460D6E754F80C400E
:1044700004F00F041461046854F80C40C4F30724DA
:104480009461046854F80CC04FEA1C4CC2F814C084
:104490004FF4DC72D0F800C002EB01125CF802C0ED
:1044A00083F800C0D0F800C05CF802C04FEA1C2CB2
:1044B00083F801C0D0F800C05CF802C04FEA1C4C81
:1044C00083F802C0D0F800C05CF80220120EDA7047
:1044D0004FF4DE72D0F800C002EB01125CF802C0AB
:1044E00083F804C0D0F800C05CF802C04FEA1C2C6E
:1044F00083F805C0D0F800C05CF802C04FEA1C4C3D
:1045000083F806C0D0F800C05CF80220120EDA7101
:1045100039B10068016941F02001016130BC00201F
:1045200070470068C16841F02001C160F6E72DE9DD
:10453000F05F0546002428684669D0F80490876833
:10454000D0F80CA0D0F810B0D0F8188016F0010FF9
:1045500054D017F0010F17D00121816017F0020F1E
:1045600003D0284600F0FAFB0EE017F0040F02D04B
:104570004FF4006408E017F0080F02D04FF48054A5
:1045800002E0284600F0E9FB17F4807F19D0296883
:104590004FF48070886017F4007F03D0284600F045
:1045A000DFFB0EE017F4806F02D044F4005408E003
:1045B00017F4006F02D044F4804402E0284600F073
:1045C000CEFB17F4803F19D029684FF48030886003
:1045D00017F4003F03D0284600F0C4FB0EE017F4A8
:1045E000802F02D044F4004408E017F4002F02D0DA
:1045F00044F4803402E0284600F0B3FB16F0080FC4
:1046000007D01AF0100F04D044F400742968102069
:10461000C86016F0040F4FF0080707D01AF0080F13
:1046200004D02868C760284600F000FA16F0020F90
:1046300007D02868C06810F0030F02D0284600F0A9
:10464000F7F916F0400F07D01BF0100F04D044F418
:10465000806429681020086116F0200F07D01BF035
:10466000080F04D028680761284600F041FB16F0C7
:10467000100F07D02868006910F0030F02D02846F9
:1046800000F037FB16F4003F08D019F0100F05D0EA
:10469000296810204860284600F02CFB16F4803F63
:1046A00007D019F0080F04D028684760284600F0AA
:1046B0005AFB16F4004F4AD019F0040F44D016F4F8
:1046C000807F04D018F0010F01D044F0010416F4EB
:1046D000007F04D018F0020F01D044F0020416F459
:1046E000806F04D018F0040F01D044F0040416F4D5
:1046F000006F29D018F0700F26D008F07000402805
:1047000015D006DC102809D020280AD0302816D170
:104710000AE050280ED0602811D10EE044F00804C1
:104720000DE044F010040AE044F0200407E044F0F7
:10473000400404E044F0800401E044F480742868FC
:10474000816921F070018161296804204860002C92
:1047500005D0686A204368622846FFF72DFEBDE851
:10476000F09F70B50446002C03D094F8200010B1DF
:1047700004E0012070BD204600F0A8F82068016820
:1047800041F00101016000F0C3FE05462068406869
:104790004FF0050610F0010F11D100F0B9FE401BDB
:1047A0000A2807D9606A40F40030606284F820600B
:1047B000012070BD2068406810F0010FEDD0206826
:1047C000016821F00201016000F0A2FE05462068A8
:1047D000406810F0020F11D000F09AFE401B0A282A
:1047E00007D9606A40F40030606284F820600120DC
:1047F00070BD2068406810F0020FEDD1207E0128C6
:104800003FD02068016821F080010160607E0128AE
:104810003DD02068016821F040010160A07E0128A0
:104820003BD02068016821F020010160E07E012872
:1048300039D02068016841F010010160207F012813
:1048400037D02068016821F008010160607F0128ED
:1048500035D02068016821F004010160E168A0689A
:10486000626908432169114308436168491E08438E
:104870002168C86100206062012084F820000020C7
:1048800070BD2068016841F080010160BEE72068CA
:10489000016841F040010160C0E72068016841F013
:1048A00020010160C2E72068016821F01001016069
:1048B000C4E72068016841F008010160C6E720688C
:1048C000016841F004010160C8E7000010B586B03E
:1048D0000446142101A8FBF7C5FE4E492068884212
:1048E00041D14D480068401C4B49086008460068AB
:1048F00001280FD100BF002000904848006840F018
:104900000070464908600846006800F0007000909A
:1049100000BF00BF00BF0020009040481038006872
:1049200040F008003D49103908600846006800F072
:104930000800009000BF00BF0320019002200290F9
:1049400000200390032004900920059001A9344819
:1049500000F0C0FC00220621142001F0B9F9142057
:1049600001F0A8F954E02F492068884250D100BFD7
:10497000002000902948006840F0806027490860C6
:104980000846006800F08060009000BF00BF224829
:104990000068401C204908600846006801280FD1C3
:1049A00000BF002000901D48006840F000701B49C7
:1049B00008600846006800F00070009000BF00BF6B
:1049C00000BF0020009015481038006840F0020039
:1049D0001249103908600846006800F00200009093
:1049E00000BF00BF602001900220029000200390D1
:1049F000032004900920059001A90B4800F06AFCEF
:104A000000220621402001F063F9402001F052F914
:104A100006B010BD00640040200000204038024075
:104A2000000C024000680040000402407047000093
:104A300010B592B00446A449206888427ED102ABEA
:104A40000BAA00212046FFF7B8FC0B98A0F201202A
:104A500030B1012829D002284ED003286FD175E04B
:104A60009DF809009DF8081040EA012000B297491E
:104A700008869DF80B009DF80A1040EA012000B25C
:104A8000924988869DF80D009DF80C1040EA01209F
:104A900000B28E49A1F85E0008460DF0B5F88C48CA
:104AA0004088401C8A49488079E09DF809009DF8BB
:104AB000081040EA012001B28448A0F890109DF847
:104AC0000B009DF80A1040EA012001B27F48A0F8CF
:104AD00094109DF80D009DF80C1040EA012001B2E1
:104AE0007A48A0F8BE1060300DF08EF878488088C3
:104AF000401C7749888052E09DF809009DF8081015
:104B000040EA012001B27148A0F8F0109DF80B00B6
:104B10009DF80A1040EA012001B26C48A0F8F41098
:104B20009DF80D009DF80C1040EA012001B2674885
:104B3000A0F81E11C0300DF067F801E030E02DE064
:104B40006348C088401C6249C88028E09DF809007D
:104B50009DF8081040EA012001B25C48A0F850110D
:104B60009DF80B009DF80A1040EA012001B2574859
:104B7000A0F854119DF80D009DF80C1040EA01209A
:104B800001B25248A0F87E1100F590700DF03CF88B
:104B90004F48008A401C4E49088200E000BF00BF19
:104BA0004C49206888427BD16B4604AA00214A48C0
:104BB000FFF703FC0498112806D0122821D01328EF
:104BC0003ED014287CD159E09DF8000000F00F0081
:104BD000424908606946414803F046FE3F4890ED6F
:104BE0000C0A80ED140A90ED0C0ADFED3D0A20EE70
:104BF000200A80ED1B0A36480089401C3449088190
:104C00005FE09DF8000000F00F003449C1F890000B
:104C100069463248903003F027FE304890ED300A64
:104C200080ED380A90ED300ADFED2D0A20EE200AE3
:104C300080ED3F0A26484089401C2549488140E0D4
:104C40009DF8000000F00F002449C1F820016946DA
:104C5000244803F009FE214890ED540A80ED5C0AD7
:104C600090ED540ADFED1E0A20EE200A80ED630A63
:104C700017488089401C1649888122E09DF8000071
:104C800000F00F00184908606946174803F0ECFD72
:104C9000154890ED0C0A80ED140AD0ED0C0A01E0E5
:104CA00010E00DE09FED0E1A9FED100A00EE810A54
:104CB00080ED1B0A0648C089401C0549C88100E0F8
:104CC00000BF00BF12B010BD0064004028360020B5
:104CD000783A002000680040D0090020A837002062
:104CE000E12E6542C83800205839002000000C42EF
:104CF00070477047704770B5044694F8200001284B
:104D000005D0606A40F400206062012070BD02207E
:104D100084F820002068016821F00101016000F0A2
:104D2000F7FB05462068406810F0010F12D000F034
:104D3000EFFB401B0A2808D9606A40F4003060622B
:104D4000052084F82000012070BD2068406810F024
:104D5000010FECD10020606270BD70477047704752
:104D600070477047704770472DE9F0410446A66DC3
:104D700000F0CEFB054694F835000027022806D047
:104D80008020606584F834700120BDE8F0812068DF
:104D9000016821F0160101602068416921F080015D
:104DA0004161206C08B9A06C20B12068016821F035
:104DB000080101602068016821F00101016020689C
:104DC000006810F0010F12D000F0A2FB401B052874
:104DD00008D920206065032084F8350084F83470F9
:104DE000BDE8F0812068006810F0010FECD194F864
:104DF0005C003F2101FA00F0B060012084F835002A
:104E000084F834700020BDE8F08190F83510022954
:104E100003D08021416501207047052180F83510BD
:104E20000068016821F00101016000207047000066
:104E30002DE9F84304464FF00008CDF8008076488D
:104E40004FF416510068B0FBF1F7A56D2E6894F889
:104E50005C00082101FA00F0304211D0206802689D
:104E600012F0040F0CD0026822F00402026094F8E1
:104E70005C0001FA00F0A860606D40F00100606520
:104E800094F85C004FF0010909FA00F0304209D0B3
:104E90002168496911F0800F04D0A860606D40F06E
:104EA0000200606594F85C1004208840304209D00C
:104EB0002168096811F0020F04D0A860606D40F00D
:104EC0000400606594F85C1010208840304224D0C3
:104ED0002168096811F0080F1FD0A86020680168D8
:104EE00011F4802F0DD0006810F4002F04D0A16CB5
:104EF00099B12046884710E0216C71B1204688475F
:104F00000BE0016811F4807F03D1016821F00801F2
:104F10000160216C09B12046884794F85C1020207C
:104F20008840304251D02168096811F0100F4CD0F0
:104F3000A86094F8350005280DD02068016811F4A8
:104F4000802F32D0006810F4002F29D0E16B59B3C4
:104F50002046884739E02068016821F01601016089
:104F60002068416921F080014161206C08B9A06C82
:104F700020B12068016821F00801016094F85C000C
:104F80003F2101FA00F0A86084F8359084F834805D
:104F9000216D00293ED001B02046BDE8F04308470E
:104FA000616C09B1204688470FE0016811F4807FE9
:104FB00007D1016821F01001016084F8359084F870
:104FC0003480E16B09B120468847606D002821D00C
:104FD000606D10F0010F15D0052084F835002068B1
:104FE000016821F0010101600098401C0090B84266
:104FF00004D82068006810F0010FF5D184F83590CE
:1050000084F83480E16C002904D001B02046BDE86A
:10501000F0430847BDE8F883880000202DE9F041FF
:10502000044600F075FA0546DCB1022084F835002C
:10503000002684F834602068016821F001010160D5
:105040002068006810F0010F13D000F061FA401BD7
:10505000052809D920206065032084F83500BDE8C3
:10506000F0810120BDE8F0812068006810F0010F98
:10507000EBD121680868234A1040A3686268D4F81D
:1050800010C01A43E36843EA0C031A4363691A43E6
:10509000A3691A43E3691A43236A1A431043626AF5
:1050A000042A03D1236BE26A1A4310430860206884
:1050B000406920F00701606A40EA010501270428E1
:1050C0000ED1A06A0543E06A50B12046FEF7C4F84D
:1050D00030B14020606584F835700120BDE8F08172
:1050E000206845612046FEF79DF894F85C103F2249
:1050F00002FA01F18160666584F835700020BDE830
:10510000F08100003F8010F070B504460025A66DC8
:1051100094F8340001280DD0012084F8340094F86C
:1051200035C00020BCF1010F06D084F83400022500
:10513000284670BD022070BD4FF0020C84F835C0C7
:1051400060652046FEF7C7F894F85C003F2101FA3D
:1051500000F0B0602068016841F016010160206C29
:1051600020B12068016841F00801016020680168F1
:1051700041F001010160DBE770B5044600F0C8F9B9
:105180000546B4F1FF3F02D004480078044400F023
:10519000BFF9401BA042FAD370BD0000D801002027
:1051A00010B50446102C12D13A48007840F00100A6
:1051B000384908703848007840F0010036490870D6
:1051C00036480078002862D00DF00AFB5FE0202C02
:1051D0000CD13348007840F00100314908702F4865
:1051E0000078002853D00DF0FBFA50E0082C1AD1BB
:1051F0002C48007840F001002A49087008460078E1
:1052000000F001000870002841D00846007820F026
:10521000010008700846007840F00200087022483B
:105220000DF0CAFC33E0012C13D110F031F9012844
:105230002DD01E491E4800680FF048FC1B4800682E
:1052400028B320071B490860BFF34F8FBFF36F8F50
:105250001DE0B4F5805F0ED11748C07818B9012061
:105260001549C87013E01448C07801280FD10020F8
:105270001149C8700BE0B4F5005F08D10E48007A00
:10528000012800D110BD01200B494871FAE700BF89
:10529000F8E70000D3000020D4000020D600002052
:1052A000D2000020D50000209C2B002058010020B7
:1052B000AC00002004ED00E0882D002010B504496A
:1052C0000A68024202D00860FFF76AFF10BD0000C2
:1052D000143C01402DE9F84F0022DFF818A2DFF856
:1052E00010924FF0010E03274FF00F08AAF1040BA4
:1052F0000EFA02FC0B6803EA0C0363457DD10C79BE
:1053000004F00304012C01D0022C14D18568540050
:1053100007FA04F6B543CE6806FA04F42C43846019
:10532000446824EA0C0C0C79C4F30014944044EA59
:105330000C0CC0F804C0D1F804C037EA0C0C0CD037
:10534000C4684FEA420C07FA0CF5AC438D6805FAC5
:105350000CFC4CEA040CC0F80CC091F804C00CF032
:10536000030CBCF1020F12D14FEAD20C00EB8C04FB
:10537000256A4FEA427C4FEADC6C08FA0CF6B5432A
:105380000E6906FA0CFC4CEA050CC4F820C004684F
:105390004FEA420C07FA0CF5AC430D7905F0030512
:1053A00005FA0CFC4CEA040CC0F800C0D1F804C0AB
:1053B0001CF4403F7DD0D9F800C04CF4804CC9F8B3
:1053C00000C0D9F800C00CF4804CCDF800C022F029
:1053D000030C0CF1804505F59835D5F808C89407FD
:1053E000240F08FA04F62CEA0606A0F1804CBCF55E
:1053F000003C64D0A0F1804C00E05AE0BCF5013CD8
:1054000060D0A0F1804CBCF5023C5ED0A0F1804C95
:10541000BCF5033C5CD0A0F1804CBCF5043C5AD0F8
:10542000A0F1804CBCF5053C58D0A0F1804CBCF5F7
:10543000063C56D0A0F1804CBCF5073C54D04FF050
:10544000080C0CFA04FC4CEA060CC5F808C8DAF89B
:1054500000C02CEA030C4C6814F4801F01D04CEA05
:10546000030CCAF800C0244CD4F800C02CEA030C8A
:105470004D6815F4001F01D04CEA030CC4F800C0BD
:10548000DBF800C02CEA030C4C6814F4003F01D098
:105490004CEA030CCBF800C0184CD4F800C02CEA3E
:1054A000030C4D6815F4803F01D04CEA030CC4F89E
:1054B00000C0521C102AFFF41BAFBDE8F88F4FF05C
:1054C000000CBEE74FF0010CBBE74FF0020CB8E751
:1054D0004FF0030CB5E74FF0040CB2E74FF0050CAA
:1054E000AFE74FF0060CACE74FF0070CA9E7000060
:1054F00044380240083C01400C3C0140003C014063
:10550000002A01D081617047090481617047000061
:105510000148806870470000D801002070B504463B
:10552000002C04D094F83D00002510B106E00120C5
:1055300070BD84F83C50204600F0EAFA242084F83C
:105540003D002068016821F00101016020680168C8
:1055500041F4004101602068016821F400410160CC
:1055600001F02AFA544B6168994203D853498842A2
:1055700003D304E05249884201D2012070BD514951
:10558000B0FBF1F12268D2F804C02CF03F0C4CEAD9
:10559000010CC2F804C062689A4201D84A1C07E0B4
:1055A0004FF4967251434FF47A72B1FBF2F14A1CF8
:1055B0002168D1F820C02CF03F0C42EA0C020A62AC
:1055C0006168994210D84900401EB0FBF1F2521CAC
:1055D000C2F30B02042A01D2042026E0B0FBF1F052
:1055E000401CC0F30B0020E0A268002A50D001EB61
:1055F000C10303EB0113A0F1010CBCFBF3F35B1C33
:1056000043F480431B051B0D4AD0002A4AD001EB0E
:10561000C10202EB0111401EB0FBF1F0401CC0F3CF
:105620000B0040F4804040F400402168CA6922F039
:10563000FF0222F44F421043C861216AE06901432E
:105640002068026822F0C00211430160E16820690D
:1056500001432068826822F0FF0222F403421143D2
:105660008160A169606901432068C26822F0FF027D
:105670001143C1602068016841F0010101602564A7
:10568000202084F83D00256384F83E50002070BD42
:1056900001EB4103A0F1010CBCFBF3F35B1CB1E790
:1056A0000120C2E701EB4101401EB0FBF1F0401CBC
:1056B000C0F30B00B7E70000A086010080841E0045
:1056C00000093D0040420F002DE9FF4F83B0044622
:1056D0008A469346DDF84490DDF84080129EFFF73D
:1056E00017FF054694F83D00202803D007B002209C
:1056F000BDE8F08F19230122A5492046009502F04C
:105700004AFD18B107B00220BDE8F08F94F83C00C4
:10571000012808D0012084F83C002068016811F0BD
:10572000010F04D007E007B00220BDE8F08F016848
:1057300041F0010101602068016821F4006101600D
:10574000222084F83D00402084F83E000027276492
:10575000C4F82480A4F82A90608D20858D48E062EA
:10576000019500965A4651462046069B02F0CEFB14
:1057700018B107B00120BDE8F08F208D10B30128CB
:1057800029D0022835D02068416980690290208D97
:10579000002800F0F180DFF80082208D032800F25D
:1057A000B780012834D002284AD03346002241462F
:1057B0002046009502F0EFFC00286CD007B00120D5
:1057C000BDE8F08F2068416981690291016841F468
:1057D00000710160DBE72068016821F480610160ED
:1057E0002068416981690291016841F4007101609A
:1057F000CDE72068016821F48061016020680168BC
:1058000041F4006101602068416980690290BEE74F
:105810002A463146204602F0A9FD18B107B0012002
:10582000BDE8F08F20680069616A0870606A401CFA
:105830006062208D401E2085608D401E608597E04F
:105840003346002241462046009502F0A4FC18B1E0
:1058500007B00120BDE8F08F2068016841F40071B5
:10586000016020680069616A0870606A401C6062BB
:10587000218D491E2185618D491E61852168096937
:105880000170606A401C6062208D401E2085608D22
:10589000401E60856CE02068016821F48061016031
:1058A00020680069616A0870606A401C6062208D2F
:1058B000401E2085608D401E608533460022414693
:1058C0002046009502F067FC18B107B00120BDE842
:1058D000F08F2068016841F4007101602068006960
:1058E000616A0870606A401C6062218D491E2185D2
:1058F000618D491E6185216809690170606A401CDB
:105900006062208D401E2085608D401E60852FE0E6
:105910002A463146204602F029FD18B107B0012081
:10592000BDE8F08F20680069616A0870606A401CF9
:105930006062208D401E82B22285608D401E60858F
:105940002068416911F0040F12D0032A03D10168C5
:1059500021F48061016020680069616A0870606AF2
:10596000401C6062208D401E2085608D401E608539
:10597000208D00287FF411AF202084F83D0084F8AA
:105980003E7084F83C7007B00020BDE8F08F000046
:10599000020010000000FFFF040001002DE9FF4F8E
:1059A00083B004468A469346DDF84490DDF8408093
:1059B000129EFFF7ADFD054694F83D00202803D068
:1059C00007B00220BDE8F08F192301224E4920467E
:1059D000009502F0E0FB18B107B00220BDE8F08F9F
:1059E00094F83C00012808D0012084F83C0020688D
:1059F000016811F0010F04D007E007B00220BDE8F4
:105A0000F08F016841F0010101602068016821F414
:105A100000610160212084F83D00402084F83E00B0
:105A200000272764C4F82480A4F82A90608D20857C
:105A30003648E062019500965A4651462046069B3C
:105A400002F00EFB18B107B00120BDE8F08F208DE9
:105A5000002836D02A463146204602F0CAFC58B10A
:105A6000206C042804D12068016841F400710160B1
:105A700007B00120BDE8F08F606A216800780861F6
:105A8000606A00F1010CC4F824C0208D401E80B271
:105A90002085618D491E61852368596911F0040FC5
:105AA0000CD058B19CF800001861606A401C60621C
:105AB000208D401E2085608D401E6085208D002831
:105AC000C8D12A463146204602F032FB58B1206C3C
:105AD000042804D12068016841F40071016007B016
