:020000040800F2
:1000000030B4002029030008B15A0008E143000879
:10001000AD5A0008110B00083190000800000000E4
:10002000000000000000000000000000690200085D
:10003000EF14000800000000C50200080588000851
:100040004303000843030008430300084303000878
:100050004303000843030008F114000843030008A9
:1000600043030008FB1400080515000843030008BB
:10007000850B0008430300084303000843030008FE
:100080004303000843030008430300084303000838
:10009000150B000843030008430300080F15000870
:1000A0004303000843030008430300084303000818
:1000B0004303000843030008430300084303000808
:1000C00043030008430300084303000843030008F8
:1000D00043030008FD8E0008430300080D8F00084D
:1000E00043030008430300084303000843030008D8
:1000F00043030008430300084303000843030008C8
:1001000043030008430300084303000843030008B7
:1001100043030008430300084303000843030008A7
:100120004303000843030008950B0008430300083D
:100130004303000843030008430300084303000887
:10014000250B00084303000843030008430300088D
:1001500043030008430300082D140008430300086C
:100160004303000843030008430300084303000857
:100170004303000843030008430300080000000095
:10018000430300084303000800F002F800F05CF8A5
:100190000AA090E8000C82448344AAF10107DA45E2
:1001A00001D100F051F8AFF2090EBAE80F0013F0D8
:1001B000010F18BFFB1A43F001031847B8D4000021
:1001C000D8D400000A444FF0000C10F8013B13F0A3
:1001D000070408BF10F8014B1D1108BF10F8015BA0
:1001E000641E05D010F8016B641E01F8016BF9D193
:1001F00013F0080F1EBF10F8014BAD1C0C1B09D1EA
:100200006D1E58BF01F801CBFAD505E014F8016B5B
:1002100001F8016B6D1EF9D59142D6D370470000ED
:100220000023002400250026103A28BF78C1FBD8FF
:10023000520728BF30C148BF0B6070471FB50DF093
:1002400066F91FBD10B510BD00F002FA1146FFF7A8
:10025000F5FF0AF075FB00F020FA03B4FFF7F2FF98
:1002600003BC00F023FA00002C4B19680868B0E8C2
:10027000F04F80F30988BFF36F8F4FF0000080F3D9
:10028000118870470000000008480068006880F38B
:1002900008884FF0000080F3148862B661B6BFF39F
:1002A0004F8FBFF36F8F00DF00BF00BF08ED00E08E
:1002B000DFF80C00016841F470010160704700BF75
:1002C00088ED00E0EFF30980BFF36F8F134B1A68DE
:1002D0001EF0100F08BF20ED108A20E9F04F1060CB
:1002E00009B44FF0500080F31188BFF34F8FBFF374
:1002F0006F8F0BF07DFD4FF0000080F3118809BC7B
:1003000019680868B0E8F04F1EF0100F08BFB0EC95
:10031000108A80F30988BFF36F8F70474C0100206B
:10032000EFF30580704700000948804709480047FF
:10033000FEE7FEE7FEE7FEE7FEE7FEE7FEE7FEE795
:10034000FEE7FEE704480549054A064B70470000F2
:10035000CD880008890100083074002030B40020E6
:10036000309400203094002053EA020C00F06980A1
:100370002DE9F04B4FF00006002B1FBFB3FA83F5B9
:1003800003FA05F424FA05F65E4012BF1643B2FAEA
:1003900082F502FA05F4C5F120051EBF22FA05FC1C
:1003A00044EA0C04203556EA044C4FEA144418BFC2
:1003B000641C4FF000084FF00009904271EB030CF1
:1003C00039D3002919BFB1FA81F701FA07F6B0FA5B
:1003D00080F700FA07F6C7F120071EBF20FA07FCD6
:1003E00046EA0C062037B6FBF4FCA7EB0507103FE6
:1003F00007F01F0BCBF120060CFA0BFB2CFA06F6CC
:1004000044BFB3460026202FA4BF5E464FF0000B2A
:100410005BEA060C08BF4FF0010B19EB0B09ABFBB5
:10042000027C48EB0608C01B06FB02CC0BFB03CC8E
:1004300071EB0C01C1E70B46024641464846BDE858
:10044000F08B13B54FF000004FF00001AFF30080C8
:10045000BDE81C40704710B5431C02E010F8011BBA
:1004600071B18107FAD14FF0013202C88C1A8C4366
:1004700014EAC211F9D0C01A0A0603D0C01E10BD7A
:10048000C01A10BD0A0401D0801E10BD0902FCD0A4
:10049000401E10BD032A40F2308010F0030C00F023
:1004A000158011F8013BBCF1020F624498BF11F8AE
:1004B00001CB00F8013B38BF11F8013BA2F1040267
:1004C00098BF00F801CB38BF00F8013B11F00303DF
:1004D00000F02580083AC0F0088051F8043B083A43
:1004E00051F804CBA0E80810F5E7121D5CBF51F8E5
:1004F000043B40F8043BAFF30080D20724BF11F85F
:10050000013B11F801CB48BF11F8012B24BF00F8C3
:10051000013B00F801CB48BF00F8012B704710B534
:10052000203AC0F00B80B1E81850203AA0E81850EB
:10053000B1E81850A0E81850BFF4F5AF5FEA027CAC
:1005400024BFB1E81850A0E8185044BF18C918C01B
:10055000BDE810405FEA827C24BF51F8043B40F8BC
:10056000043B08BF7047D20728BF31F8023B48BFA1
:1005700011F8012B28BF20F8023B48BF00F8012BDF
:10058000704702F0FF0343EA032242EA024200F00E
:1005900037B84FF0000200B513469446964620390E
:1005A00022BFA0E80C50A0E80C50B1F12001BFF42C
:1005B000F7AF090728BFA0E80C5048BF0CC05DF892
:1005C00004EB890028BF40F8042B08BF704748BFE0
:1005D00020F8022B11F0804F18BF00F8012B704754
:1005E00070477047704710B500F02AF8006810BDDA
:1005F00010B5044600F024F8046010BD4FF000026E
:100600000429C0F0128010F0030C3FF4C4AFCCF109
:10061000040CBCF1020F18BF00F8012BA8BF20F892
:10062000022BA1EB0C01FFF7B6BF5FEAC17C24BF30
:1006300000F8012B00F8012B48BF00F8012B704790
:1006400000487047CC73002000487047CC730020EE
:100650007546FFF7F9FFAE4605006946534620F0A0
:100660000700854618B020B5FFF76CFEBDE82040B6
:100670004FF000064FF000074FF000084FF0000B5E
:1006800021F00701AC46ACE8C009ACE8C009ACE811
:10069000C009ACE8C0098D46704710B50446AFF3F9
:1006A00000802046BDE81040FFF7D7BD0149182063
:1006B000ABBEFEE72600020070470000B7EE000A5E
:1006C00080ED000A9FED060A80ED010A9FED040A05
:1006D00080ED020A9FED020A80ED030A70470000D8
:1006E000000000002DE9F0412DED028B0746B0EE31
:1006F000408A0C4615461E46D6ED024AB0EE644AC4
:10070000D6ED014AF0EE643AD6ED004AB0EE643A16
:10071000D5ED024AF0EE642AD5ED014AB0EE642A26
:10072000D5ED004AF0EE641AD4ED024AB0EE641A38
:10073000D4ED014AF0EE640AD4ED004AB0EE640A4A
:10074000384604F05FFDBDEC028BBDE8F08100008F
:1007500010B501221021024801F04CFF10BD00002D
:100760000000024010B500221021024801F042FFB3
:1007700010BD0000000002407047000010B50122CB
:100780001146024801F036FF10BD0000000402408F
:1007900010B500220121024801F02CFF10BD00001D
:1007A0000004024010B543781B021BB204782343B7
:1007B00000EE103AB8EEC01A1C4BD3ED001A21EE31
:1007C000211A81ED001AC3781B021BB284782343DF
:1007D00000EE103AB8EEC01A144BD3ED001A21EE19
:1007E000211A81ED011A43791B021BB204792343BC
:1007F00000EE103AB8EEC01A0C4BD3ED001A21EE01
:10080000211A81ED021A037A1B04C47943EA0423F6
:100810008479234300EE903AB8EE601ADFED041AB3
:1008200021EE211A82ED001A10BD000014010020F3
:1008300000401C42704710B5044620460AF050F9AB
:1008400010BD10B50446204609F0C4FB10BD0000E1
:100850004278120212B203781A4300EE102AF8EE20
:10086000C00A144A92ED001A60EE810AC1ED000A36
:10087000C278120212B283781A4300EE102AF8EE00
:10088000C00A0C4A92ED001A60EE810AC1ED010A1D
:100890004279120212B203791A4300EE102AF8EEDE
:1008A000C00A044A92ED001A60EE810AC1ED020A04
:1008B000704700001801002010B50024FFF75CFF0E
:1008C000FFF7B8FF08F0B4FE10B144F0800402E076
:1008D00008F014FE044309F0A3F810B144F04004FA
:1008E00002E009F023F80443204610BD2DE9FC4145
:1008F00005460E461746002000900190FFF732FF94
:10090000922000F0D1F806226946122000F0ACF8DF
:10091000FFF71EFF9DF80100000200B29DF80010D5
:1009200040EA010400EE104AB8EEC00A4C48D0ED8F
:10093000000A20EE200A86ED000A9DF8030000025E
:1009400000B29DF8021040EA010400EE104AB8EE31
:10095000C00A4348D0ED000A20EE200A86ED010AC5
:100960009DF80500000200B29DF8041040EA010461
:1009700000EE104AB8EEC00A3948D0ED000A20EE69
:10098000200A86ED020AFFF703FF082269460020CD
:1009900000F06AF8FFF7F2FE9DF800000F2838D14A
:1009A0009DF80300000200B29DF8021040EA010425
:1009B00000EE104AB8EEC00A2A48D0ED000A20EE38
:1009C000200A85ED000A9DF80500000200B29DF89E
:1009D000041040EA010400EE104AB8EEC00A2148B3
:1009E000D0ED000A20EE200A85ED010A9DF80700EF
:1009F000000200B29DF8061040EA010400EE104A21
:100A0000B8EEC00A1748D0ED000A20EE200A85EDA6
:100A1000020AFFF7A7FEA22000F046F8022269466C
:100A2000222000F021F8FFF793FE9DF80000C0009F
:100A30009DF8011040EA6114B4F5806F02DBA4F563
:100A4000006004B200EE104AF8EEC00AB4EE001ADC
:100A5000B3EE070A00EE810A87ED000ABDE8FC81CB
:100A6000140100201801002070B506460C461546FA
:100A700046F0800000F018F806E0552000F014F869
:100A80002070641C681EC5B2002DF6D170BD70B513
:100A900004460D4644F0800000F006F8552000F0B2
:100AA00003F8287070BD000001B582B04FF47A7071
:100AB000012301AA02A90090024802F031FE9DF82C
:100AC00004000EBD1409002010B502461378DB00A7
:100AD000547843EA6410B0F5806F02DBA0F5006340
:100AE00018B200EE100AF8EEC00AB4EE001AB3EE27
:100AF000070A00EE810A81ED000A10BD70B50546B7
:100B00000C462846FFF7D0FF2046FFF7CDFF70BD0B
:100B100000BFFEE710B5024800F0D9FE10BD00008E
:100B20007008002010B5024800F0D1FE10BD000092
:100B300098080020F8B507460C4615461E464FF4A7
:100B400000700D49086000208860C86008200861B6
:100B5000380A0A4908704F70200A8870CC70280A39
:100B600008714D71300A8871CE716B460A46024990
:100B7000034800F0E4FCF8BD180E0020F40000204B
:100B80007008002010B5024801F03CFA10BD0000CA
:100B9000AC0B002010B5FE48C06C0068FD498842CF
:100BA00076D9FC4854380068F949C96C0968FA4A92
:100BB000914201D1202169E0F549C96C0968F54AE3
:100BC000483A914201D1202160E0F149C96C09689D
:100BD000F14A6032914201D1202157E0EC49C96CC1
:100BE0000968EC4A1832914201D120214EE0E849CF
:100BF000C96C0968E84A1832914201D1C91445E02C
:100C0000E349C96C0968E34A303A914201D1C914F9
:100C10003CE0DF49C96C0968DF4A7832914201D172
:100C2000C91433E0DA49C96C0968DA4A30329142B2
:100C300001D1C9142AE0D649C96C0968D64A3032B4
:100C4000914202D14FF4001120E0D149C96C0968EA
:100C5000D04A183A914202D14FF4001116E0CC4923
:100C6000C96C0968CC4A9032914202D14FF400110C
:100C70000CE0C749C96C0968C64A4832914203D1A1
:100C80004FF4001102E003E04FF00061084070E112
:100C9000BF48C06C0068C049A831884276D9BD48B9
:100CA00058380068BA49C96C0968BB4A914201D1F9
:100CB000202169E0B649C96C0968B64A483A9142B0
:100CC00001D1202160E0B249C96C0968B24A6032A2
:100CD000914201D1202157E0AD49C96C0968AD4A64
:100CE0001832914201D120214EE0A949C96C09680E
:100CF000A94A1832914201D1C91445E0A449C96CEE
:100D00000968A44A303A914201D1C9143CE0A04993
:100D1000C96C0968A04A7832914201D1C91433E004
:100D20009B49C96C09689B4A3032914201D1C91470
:100D30002AE09749C96C0968974A3032914202D13A
:100D40004FF4001120E09249C96C0968914A183AA1
:100D5000914202D14FF4001116E08D49C96C096827
:100D60008D4A9032914202D14FF400110CE0884933
:100D7000C96C0968874A4832914203D14FF4001187
:100D800002E003E04FF000610840F2E08048C06CF0
:100D9000006881494831884276D97F4810384068D8
:100DA0007B49C96C09687C4A914201D1202169E0E4
:100DB0007749C96C0968774A483A914201D12021A4
:100DC00060E07349C96C0968734A6032914201D18D
:100DD000202157E06E49C96C09686E4A1832914269
:100DE00001D120214EE06A49C96C09686A4A18326B
:100DF000914201D1C91445E06549C96C0968654A49
:100E0000303A914201D1C9143CE06149C96C09688A
:100E1000614A7832914201D1C91433E05C49C96C0E
:100E200009685C4A3032914201D1C9142AE058491C
:100E3000C96C0968584A3032914202D14FF400110E
:100E400020E05349C96C0968524A183A914202D1CC
:100E50004FF4001116E04E49C96C09684E4A9032B1
:100E6000914202D14FF400110CE04949C96C096864
:100E7000484A4832914203D14FF4001102E003E0A6
:100E80004FF00061084074E0434810380068404962
:100E9000C96C0968404A914201D1202168E03C496F
:100EA000C96C09683B4A483A914201D120215FE070
:100EB0003749C96C0968384A6032914201D1202112
:100EC00056E03349C96C0968324A1832914201D15F
:100ED00020214DE02E49C96C09682F4A18329142F1
:100EE00001D1C91444E02A49C96C0968294A303A39
:100EF000914201D1C9143BE02549C96C0968264AD1
:100F00007832914201D1C91432E02149C96C096893
:100F1000204A3032914201D1C91429E01C49C96CE0
:100F200009681D4A3032914202D14FF400111FE08E
:100F30001749C96C0968174A183A914202D14FF40F
:100F4000001115E01249C96C0968134A90329142A8
:100F500002D14FF400110BE00D49C96C09680D4A2C
:100F60004832914202D14FF4001101E04FF000618C
:100F7000084000286FD00648C06C006805498842C8
:100F80007BD90348C06C00680349884208D105E05A
:100F9000140900205864024010600240202068E0DC
:100FA000FE48C06C0068FE49884201D1202060E004
:100FB000FA48C06C0068FB49884201D1202058E003
:100FC000F648C06C0068F6496031884201D12020A3
:100FD0004FE0F248C06C0068F2494839884201D1BC
:100FE000C01446E0ED48C06C0068ED4918318842F5
:100FF00001D1C0143DE0E948C06C0068E9491831EE
:10100000884201D1C01434E0E448C06C0068E4496F
:101010007831884201D1C0142BE0E048C06C0068F0
:10102000E0493039884202D14FF4001021E0DB481A
:10103000C06C0068DA493031884202D14FF40010A8
:1010400017E0D648C06C0068D6493031884204D1D8
:101050004FF400100DE0DFE10FE0D048C06C0068F5
:10106000CF499031884202D14FF4001001E04FF097
:101070000060CB49091F08606AE1C848C06C00687D
:10108000C8494831884274D9C448C06C0068C54911
:101090006039884201D1202066E0C048C06C0068F9
:1010A000BF49884201D120205EE0BC48C06C006886
:1010B000BC49884201D1202056E0B848C06C006885
:1010C000B7496031884201D120204DE0B348C06C5F
:1010D0000068B4494839884201D1C01444E0AF489F
:1010E000C06C0068AE491831884201D1C0143BE0A1
:1010F000AA48C06C0068AB491831884201D1C014BD
:1011000032E0A648C06C0068A5497831884201D118
:10111000C01429E0A148C06C0068A2493039884257
:1011200002D14FF400101FE09C48C06C00689C493D
:101130003031884202D14FF4001015E09748C06C5E
:10114000006898493031884202D14FF400100BE01A
:101150009248C06C006892499031884202D14FF4A5
:10116000001001E04FF000608D4908390860EFE0A1
:10117000FFE78A48C06C00688A491839884274D9E8
:101180008648C06C006887496039884201D12020B8
:1011900066E08248C06C00688149884201D1202005
:1011A0005EE07E48C06C00687E49884201D1202004
:1011B00056E07A48C06C006879496031884201D1B4
:1011C00020204DE07548C06C006876494839884257
:1011D00001D1C01444E07148C06C006870491831F6
:1011E000884201D1C0143BE06C48C06C00686D4976
:1011F0001831884201D1C01432E06848C06C0068E0
:1012000067497831884201D1C01429E06348C06C35
:10121000006864493039884202D14FF400101FE061
:101220005E48C06C00685E493031884202D14FF49C
:10123000001015E05948C06C00685A4930318842A6
:1012400002D14FF400100BE05448C06C00685449C0
:101250009031884202D14FF4001001E04FF000605D
:1012600050497039C86073E0FFE74C48C06C0068B3
:101270004C496039884201D1202066E04748C06C63
:1012800000684749884201D120205EE04348C06C95
:1012900000684449884201D1202056E03F48C06C94
:1012A00000683F496031884201D120204DE03B4831
:1012B000C06C00683B494839884201D1C01444E001
:1012C0003648C06C006836491831884201D1C014D4
:1012D0003BE03248C06C006832491831884201D185
:1012E000C01432E02D48C06C00682D497831884226
:1012F00001D1C01429E02948C06C0068294930395F
:10130000884202D14FF400101FE02448C06C0068EE
:1013100023493031884202D14FF4001015E01F48B4
:10132000C06C00681F493031884202D14FF4001070
:101330000BE01A48C06C006819499031884202D10C
:101340004FF4001001E04FF00060164970398860DA
:101350001548007800F0020078B11348007820F0BA
:101360000200114908700846007840F00400087037
:10137000012211460D4801F03DF90D48007800F0BA
:101380000200E0B10A48007820F002000849087025
:101390000846007840F0040008700BE014090020B3
:1013A00010640240706002405500002000040240BA
:1013B0005600002001221021184801F01BF918489E
:1013C000007800F0020078B11548007820F00200A3
:1013D000134908700846007840F0040008700122A4
:1013E00010210E4801F006F908F070FF0D48007852
:1013F00000F0040080B10B48007820F00400094997
:1014000008700846007840F0080008700648006838
:1014100040F001000449086010BD000000000240D7
:101420005700002055000020103C014010B5024834
:1014300000F0E8FD10BD00004C0B002001680A4BD5
:10144000CAB2103AA3FB02321209084B9B5CC36577
:10145000032A04D96FF30901091D816502E06FF3C6
:1014600009018165806D7047ABAAAAAA3AD6000827
:10147000014600208A6A8B69002B0FD0B3F5005F0C
:101480001DD08AB3012A30D0022A2ED0032A04D1DB
:10149000C96A11F0807F00D0012070471AB1012A7B
:1014A00007D0022AF9D1C96A11F0807FF5D0012056
:1014B0007047C96AB1F1C07FFAD1012070475AB1B3
:1014C000012A0BD0022A07D0032AF7D1C96AB1F149
:1014D000C07FF3D10120704701207047C96A11F025
:1014E000807FFAD001207047FFE7012070477047E6
:1014F00010B5012000F05CFF10BD10B5082000F011
:1015000057FF10BD10B5102000F052FF10BD10B5F0
:10151000202000F04DFF10BD704790F82020012AD8
:1015200007D0022A05D0416A41F48021416201209E
:10153000704700684269114341610020704770B4F0
:1015400090F82040D0F800C0DCF808C0012C08D08A
:10155000022C06D0416A41F48021416270BC012016
:1015600070470CF080640CF000652C4302D11CF035
:10157000805F55D0CCF3016C012404FA0CF41C609C
:101580008B684FF4C0749BB1CD6804EB0C162B43F1
:101590004D6843EAC5030568AB514FF4C273066852
:1015A00003EB0C130D69F550097D012909D00DE0FD
:1015B0000D88CB6804EB0C1643EA45530568AB5124
:1015C000EBE70168CD5845F48075CD501179D3799A
:1015D000557941EA036193791B0443EA05231943D2
:1015E0004FF4C675036805EB0C1559511178D37883
:1015F00041EA0361937852781B0443EA02221143C3
:101600004FF4C473026803EB0C13D150016804EB70
:101610000C100A5842F001020A5070BC00207047BA
:10162000416A41F40011416270BC01207047000022
:1016300090F82020012A07D0022A05D0416A41F4FF
:1016400080214162012070474248D0F8002242F0D8
:101650000102C0F80022D0F8002222F47C52C0F827
:101660000022D0F800224B6A42EA0322C0F800228E
:101670000A7D012302F01F0203FA02F2D0F81C32A5
:101680009343C0F81C32CB69D3B9D0F80C329343E2
:10169000C0F80C32B1F80CC04B686CF31F43D1F8A2
:1016A00014C000EBCC0CCCF84032B1F808C00B6889
:1016B0006CF31F43D1F814C000EBCC0CCCF84432CF
:1016C000CB69012B1AD1D0F80C321343C0F80C327D
:1016D000B1F800C04B686CF31F43D1F814C000EBA5
:1016E000CC0CCCF84032B1F808C0CB686CF31F4387
:1016F000D1F814C000EBCC0CCCF844328B697BB130
:10170000D0F804321343C0F804320B6973B1D0F837
:1017100014321343C0F81432096A01290CD010E0C6
:10172000D0F804329343C0F80432EEE7D0F8143214
:101730009343C0F81432EFE7D0F81C121143C0F8FD
:101740001C12D0F8001221F00101C0F80012002094
:101750007047000000640040704730B490F820C02B
:10176000BCF1010F09D0BCF1020F06D0416A41F46F
:101770008021416230BC0120704739B1D0F800C0EF
:10178000DCF810C01CF0030F33D006E0D0F800C026
:10179000DCF80CC01CF0030F24D04FF4D87C046894
:1017A0000CEB011C54F80C4004F0040494603CB3AE
:1017B000046854F80C40E4085460046854F80CC001
:1017C0000CF0020CC2F80CC04FF4DA7C04680CEB8D
:1017D000011C54F80C5005F00F05082D16D30824F1
:1017E000146118E0416A41F40011416230BC0120EB
:1017F0007047416A41F40011416230BC01207047DA
:10180000046854F80C40640D1460D6E754F80C409A
:1018100004F00F041461046854F80C40C4F3072466
:101820009461046854F80CC04FEA1C4CC2F814C010
:101830004FF4DC72D0F800C002EB01125CF802C079
:1018400083F800C0D0F800C05CF802C04FEA1C2C3E
:1018500083F801C0D0F800C05CF802C04FEA1C4C0D
:1018600083F802C0D0F800C05CF80220120EDA70D3
:101870004FF4DE72D0F800C002EB01125CF802C037
:1018800083F804C0D0F800C05CF802C04FEA1C2CFA
:1018900083F805C0D0F800C05CF802C04FEA1C4CC9
:1018A00083F806C0D0F800C05CF80220120EDA718E
:1018B00039B10068016941F02001016130BC0020AC
:1018C00070470068C16841F02001C160F6E72DE96A
:1018D000F05F0546002428684669D0F804908768C0
:1018E000D0F80CA0D0F810B0D0F8188016F0010F86
:1018F00054D017F0010F17D00121816017F0020FAB
:1019000003D0284600F014FB0EE017F0040F02D0BD
:101910004FF4006408E017F0080F02D04FF4805431
:1019200002E0284600F003FB17F4807F19D02968F5
:101930004FF48070886017F4007F03D0284600F0D1
:10194000F9FA0EE017F4806F02D044F4005408E076
:1019500017F4006F02D044F4804402E0284600F0FF
:10196000E8FA17F4803F19D029684FF48030886076
:1019700017F4003F03D0284600F0DEFA0EE017F41B
:10198000802F02D044F4004408E017F4002F02D066
:1019900044F4803402E0284600F0CDFA16F0080F37
:1019A00007D01AF0100F04D044F4007429681020F6
:1019B000C86016F0040F4FF0080707D01AF0080FA0
:1019C00004D02868C760284600F000FA16F0020F1D
:1019D00007D02868C06810F0030F02D0284600F036
:1019E000F7F916F0400F07D01BF0100F04D044F4A5
:1019F000806429681020086116F0200F07D01BF0C2
:101A0000080F04D028680761284600F05BFA16F03A
:101A1000100F07D02868006910F0030F02D0284685
:101A200000F051FA16F4003F08D019F0100F05D05D
:101A3000296810204860284600F046FA16F4803FD6
:101A400007D019F0080F04D028684760284600F036
:101A500074FA16F4004F4AD019F0040F44D016F46B
:101A6000807F04D018F0010F01D044F0010416F477
:101A7000007F04D018F0020F01D044F0020416F4E5
:101A8000806F04D018F0040F01D044F0040416F461
:101A9000006F29D018F0700F26D008F07000402891
:101AA00015D006DC102809D020280AD0302816D1FD
:101AB0000AE050280ED0602811D10EE044F008044E
:101AC0000DE044F010040AE044F0200407E044F084
:101AD000400404E044F0800401E044F48074286889
:101AE000816921F070018161296804204860002C1F
:101AF00005D0686A204368622846FFF72DFEBDE8DE
:101B0000F09F70B50446002C03D094F8200010B16B
:101B100004E0012070BD204600F0A8F820680168AC
:101B200041F00101016000F06DFD0546206840684C
:101B30004FF0050610F0010F11D100F063FD401BBE
:101B40000A2807D9606A40F40030606284F8206097
:101B5000012070BD2068406810F0010FEDD02068B2
:101B6000016821F00201016000F04CFD054620688B
:101B7000406810F0020F11D000F044FD401B0A280D
:101B800007D9606A40F40030606284F82060012068
:101B900070BD2068406810F0020FEDD1207E012852
:101BA0003FD02068016821F080010160607E01283B
:101BB0003DD02068016821F040010160A07E01282D
:101BC0003BD02068016821F020010160E07E0128FF
:101BD00039D02068016841F010010160207F0128A0
:101BE00037D02068016821F008010160607F01287A
:101BF00035D02068016821F004010160E168A06827
:101C0000626908432169114308436168491E08431A
:101C10002168C86100206062012084F82000002053
:101C200070BD2068016841F080010160BEE7206856
:101C3000016841F040010160C0E72068016841F09F
:101C400020010160C2E72068016821F010010160F5
:101C5000C4E72068016841F008010160C6E7206818
:101C6000016841F004010160C8E7000010B586B0CA
:101C70000446142101A8FEF78CFC4E4920688842D6
:101C800041D14D480068401C4B4908600846006837
:101C900001280FD100BF002000904848006840F0A4
:101CA0000070464908600846006800F00070009027
:101CB00000BF00BF00BF00200090404810380068FF
:101CC00040F008003D49103908600846006800F0FF
:101CD0000800009000BF00BF032001900220029086
:101CE00000200390032004900920059001A93448A6
:101CF00000F06AFB00220621142001F063F8142092
:101D000001F052F854E02F492068884250D100BFBA
:101D1000002000902948006840F080602749086052
:101D20000846006800F08060009000BF00BF2248B5
:101D30000068401C204908600846006801280FD14F
:101D400000BF002000901D48006840F000701B4953
:101D500008600846006800F00070009000BF00BFF7
:101D600000BF0020009015481038006840F00200C5
:101D70001249103908600846006800F0020000901F
:101D800000BF00BF6020019002200290002003905D
:101D9000032004900920059001A90B4800F014FBD2
:101DA00000220621402001F00DF8402000F0FCFF49
:101DB00006B010BD0064004018000020403802400A
:101DC000000C024000680040000402407047000020
:101DD00010B592B004463749206888425BD102AB07
:101DE0000BAA00212046FFF7B8FC0B98A0F20120B7
:101DF00030B1012805D0022804D0032849D102E0DF
:101E000000BF00BF00BF0B98401E2B49087008465A
:101E1000007800EB4000294931F8300000B2264933
:101E2000097801EB4101254A02EBC10108819DF8C7
:101E300009009DF8081040EA01201F49097801EBCC
:101E4000410122F831009DF80B009DF80A1040EA8C
:101E5000012000B21849097801EB410102EBC101F0
:101E600048809DF80D009DF80C1040EA012000B25A
:101E70001149097801EB410102EBC10188809DF80D
:101E80000E000D49097801EB410102EBC101887197
:101E900000E000BF00BF0A492068884208D16B46B5
:101EA00004AA00212046FFF758FC00BF00BF00BF76
:101EB00012B010BD00640040FC000020400D002066
:101EC0000068004070477047704770B5044694F84A
:101ED0002000012805D0606A40F4002060620120E3
:101EE00070BD022084F820002068016821F0010103
:101EF000016000F087FB05462068406810F0010F84
:101F000012D000F07FFB401B0A2808D9606A40F419
:101F100000306062052084F82000012070BD206838
:101F2000406810F0010FECD10020606270BD704776
:101F30007047704770477047704770472DE9F04110
:101F40000446A66D00F05EFB054694F835000027B8
:101F5000022806D08020606584F834700120BDE836
:101F6000F0812068016821F0160101602068416954
:101F700021F080014161206C08B9A06C20B120687B
:101F8000016821F0080101602068016821F0010169
:101F900001602068006810F0010F12D000F032FBE1
:101FA000401B052808D920206065032084F83500EF
:101FB00084F83470BDE8F0812068006810F0010FEB
:101FC000ECD194F85C003F2101FA00F0B0600120F0
:101FD00084F8350084F834700020BDE8F08190F872
:101FE0003510022903D08021416501207047052169
:101FF00080F835100068016821F0010101600020BF
:10200000704700002DE9F84304464FF00008CDF872
:10201000008076484FF416510068B0FBF1F7A56DCB
:102020002E6894F85C00082101FA00F0304211D0CB
:102030002068026812F0040F0CD0026822F004023B
:10204000026094F85C0001FA00F0A860606D40F056
:102050000100606594F85C004FF0010909FA00F096
:10206000304209D02168496911F0800F04D0A8607E
:10207000606D40F00200606594F85C1004208840B8
:10208000304209D02168096811F0020F04D0A8601D
:10209000606D40F00400606594F85C10102088408A
:1020A000304224D02168096811F0080F1FD0A860C1
:1020B0002068016811F4802F0DD0006810F4002F03
:1020C00004D0A16C99B12046884710E0216C71B111
:1020D000204688470BE0016811F4807F03D1016836
:1020E00021F008010160216C09B12046884794F86D
:1020F0005C1020208840304251D02168096811F0DE
:10210000100F4CD0A86094F8350005280DD0206839
:10211000016811F4802F32D0006810F4002F29D00C
:10212000E16B59B32046884739E02068016821F007
:10213000160101602068416921F080014161206C35
:1021400008B9A06C20B12068016821F00801016085
:1021500094F85C003F2101FA00F0A86084F8359003
:1021600084F83480216D00293ED001B02046BDE8BE
:10217000F0430847616C09B1204688470FE00168C9
:1021800011F4807F07D1016821F01001016084F80B
:10219000359084F83480E16B09B120468847606D42
:1021A000002821D0606D10F0010F15D0052084F8B3
:1021B00035002068016821F0010101600098401C91
:1021C0000090B84204D82068006810F0010FF5D1E3
:1021D00084F8359084F83480E16C002904D001B093
:1021E0002046BDE8F0430847BDE8F8831C00002006
:1021F0002DE9F041044600F005FA0546DCB1022065
:1022000084F83500002684F834602068016821F0E5
:10221000010101602068006810F0010F13D000F088
:10222000F1F9401B052809D920206065032084F8B6
:102230003500BDE8F0810120BDE8F081206800682C
:1022400010F0010FEBD121680868234A1040A36801
:102250006268D4F810C01A43E36843EA0C031A43D7
:1022600063691A43A3691A43E3691A43236A1A4349
:102270001043626A042A03D1236BE26A1A431043B3
:1022800008602068406920F00701606A40EA0105A3
:10229000012704280ED1A06A0543E06A50B1204608
:1022A000FFF7E6F830B14020606584F83570012012
:1022B000BDE8F081206845612046FFF7BFF894F83B
:1022C0005C103F2202FA01F18160666584F8357086
:1022D0000020BDE8F08100003F8010F010B50446FA
:1022E000102C12D12948007840F0010027490870CD
:1022F0002748007840F001002549087025480078FB
:10230000002841D007F0E2FF3EE0202C0BD122480C
:10231000007840F00100204908701E48007898B30A
:1023200007F0D4FF30E0082C19D11C48007840F0A9
:1023300001001A4908700846007800F00100087092
:1023400010B30846007820F00100087008460078B5
:1023500040F002000870124808F0A4F914E0012CC3
:1023600012D10AF041F901280ED00E490E4800683A
:1023700009F058FC0B48006830B120070B49086091
:10238000BFF34F8FBFF36F8F10BD000056000020CA
:102390005700002059000020550000205800002060
:1023A000700C0020CC0000203000002004ED00E084
:1023B00010B504490A68024202D00860FFF78EFF98
:1023C00010BD0000143C01402DE9F84F0022DFF859
:1023D00018A2DFF810924FF0010E03274FF00F08FC
:1023E000AAF1040B0EFA02FC0B6803EA0C03634526
:1023F0007DD10C7904F00304012C01D0022C14D1FE
:102400008568540007FA04F6B543CE6806FA04F46A
:102410002C438460446824EA0C0C0C79C4F3001447
:10242000944044EA0C0CC0F804C0D1F804C037EA68
:102430000C0C0CD0C4684FEA420C07FA0CF5AC4304
:102440008D6805FA0CFC4CEA040CC0F80CC091F83D
:1024500004C00CF0030CBCF1020F12D14FEAD20CF5
:1024600000EB8C04256A4FEA427C4FEADC6C08FAE8
:102470000CF6B5430E6906FA0CFC4CEA050CC4F8E0
:1024800020C004684FEA420C07FA0CF5AC430D7902
:1024900005F0030505FA0CFC4CEA040CC0F800C07A
:1024A000D1F804C01CF4403F7DD0D9F800C04CF4F2
:1024B000804CC9F800C0D9F800C00CF4804CCDF8AD
:1024C00000C022F0030C0CF1804505F59835D5F8D5
:1024D00008C89407240F08FA04F62CEA0606A0F1AF
:1024E000804CBCF5003C64D0A0F1804C00E05AE088
:1024F000BCF5013C60D0A0F1804CBCF5023C5ED044
:10250000A0F1804CBCF5033C5CD0A0F1804CBCF544
:10251000043C5AD0A0F1804CBCF5053C58D0A0F149
:10252000804CBCF5063C56D0A0F1804CBCF5073C75
:1025300054D04FF0080C0CFA04FC4CEA060CC5F819
:1025400008C8DAF800C02CEA030C4C6814F4801FA9
:1025500001D04CEA030CCAF800C0244CD4F800C0E7
:102560002CEA030C4D6815F4001F01D04CEA030C53
:10257000C4F800C0DBF800C02CEA030C4C6814F46B
:10258000003F01D04CEA030CCBF800C0184CD4F843
:1025900000C02CEA030C4D6815F4803F01D04CEAD2
:1025A000030CC4F800C0521C102AFFF41BAFBDE896
:1025B000F88F4FF0000CBEE74FF0010CBBE74FF077
:1025C000020CB8E74FF0030CB5E74FF0040CB2E78C
:1025D0004FF0050CAFE74FF0060CACE74FF0070CDF
:1025E000A9E7000044380240083C01400C3C01408F
:1025F000003C0140002A01D08161704709048161DB
:1026000070470000014880687047000040010020CA
:1026100070B50446002C04D094F83D00002510B19C
:1026200006E0012070BD84F83C50204600F0EAFA34
:10263000242084F83D002068016821F00101016038
:102640002068016841F4004101602068016821F4BC
:102650000041016000F0C0FC544B6168994203D80E
:102660005349884203D304E05249884201D20120F1
:1026700070BD5149B0FBF1F12268D2F804C02CF0D2
:102680003F0C4CEA010CC2F804C062689A4201D8BF
:102690004A1C07E04FF4967251434FF47A72B1FB33
:1026A000F2F14A1C2168D1F820C02CF03F0C42EA1C
:1026B0000C020A626168994210D84900401EB0FBC2
:1026C000F1F2521CC2F30B02042A01D2042026E0CC
:1026D000B0FBF1F0401CC0F30B0020E0A268002A20
:1026E00050D001EBC10303EB0113A0F1010CBCFBC3
:1026F000F3F35B1C43F480431B051B0D4AD0002AF7
:102700004AD001EBC10202EB0111401EB0FBF1F017
:10271000401CC0F30B0040F4804040F400402168AE
:10272000CA6922F0FF0222F44F421043C861216AB5
:10273000E06901432068026822F0C0021143016091
:10274000E168206901432068826822F0FF0222F4D8
:10275000034211438160A169606901432068C26836
:1027600022F0FF021143C1602068016841F00101BD
:1027700001602564202084F83D00256384F83E50E4
:10278000002070BD01EB4103A0F1010CBCFBF3F391
:102790005B1CB1E70120C2E701EB4101401EB0FB29
:1027A000F1F0401CC0F30B00B7E70000A086010069
:1027B00080841E0000093D0040420F002DE9FF4FBC
:1027C00083B004468A469346DDF84490DDF84080A5
:1027D000129EFFF717FF054694F83D00202803D00E
:1027E00007B00220BDE8F08F19230122A549204639
:1027F000009501F056FF18B107B00220BDE8F08F38
:1028000094F83C00012808D0012084F83C0020689E
:10281000016811F0010F04D007E007B00220BDE805
:10282000F08F016841F0010101602068016821F426
:1028300000610160222084F83D00402084F83E00C1
:1028400000272764C4F82480A4F82A90608D20858E
:102850008D48E062019500965A4651462046069BF7
:1028600001F0DAFD18B107B00120BDE8F08F208D2E
:1028700010B3012829D0022835D020684169806929
:102880000290208D002800F0F180DFF80082208D7A
:10289000032800F2B780012834D002284AD03346FA
:1028A000002241462046009501F0FBFE00286CD036
:1028B00007B00120BDE8F08F20684169816902916D
:1028C000016841F400710160DBE72068016821F4D0
:1028D000806101602068416981690291016841F469
:1028E00000710160CDE72068016821F4806101601A
:1028F0002068016841F400610160206841698069D5
:102900000290BEE72A463146204601F0B5FF18B1D5
:1029100007B00120BDE8F08F20680069616A087087
:10292000606A401C6062208D401E2085608D401EC4
:10293000608597E03346002241462046009501F02D
:10294000B0FE18B107B00120BDE8F08F2068016823
:1029500041F40071016020680069616A0870606A72
:10296000401C6062218D491E2185618D491E618553
:10297000216809690170606A401C6062208D401EF8
:102980002085608D401E60856CE02068016821F420
:102990008061016020680069616A0870606A401C9B
:1029A0006062208D401E2085608D401E608533460C
:1029B000002241462046009501F073FE18B107B091
:1029C0000120BDE8F08F2068016841F400710160CA
:1029D00020680069616A0870606A401C6062218D2D
:1029E000491E2185618D491E618521680969017033
:1029F000606A401C6062208D401E2085608D401EF4
:102A000060852FE02A463146204601F035FF18B197
:102A100007B00120BDE8F08F20680069616A087086
:102A2000606A401C6062208D401E82B22285608DEB
:102A3000401E60852068416911F0040F12D0032AFE
:102A400003D1016821F48061016020680069616A36
:102A50000870606A401C6062208D401E2085608D79
:102A6000401E6085208D00287FF411AF202084F85F
:102A70003D0084F83E7084F83C7007B00020BDE84B
:102A8000F08F0000020010000000FFFF04000100B2
:102A90002DE9FF4F83B004468A469346DDF8449003
:102AA000DDF84080129EFFF7ADFD054694F83D002D
:102AB000202803D007B00220BDE8F08F192301229F
:102AC0004E492046009501F0ECFD18B107B00220F8
:102AD000BDE8F08F94F83C00012808D0012084F86C
:102AE0003C002068016811F0010F04D007E007B036
:102AF0000220BDE8F08F016841F00101016020680B
:102B0000016821F400610160212084F83D0040202B
:102B100084F83E0000272764C4F82480A4F82A9093
:102B2000608D20853648E062019500965A465146F0
:102B30002046069B01F01AFD18B107B00120BDE840
:102B4000F08F208D002836D02A463146204601F0ED
:102B5000D6FE58B1206C042804D12068016841F4E5
:102B60000071016007B00120BDE8F08F606A216844
:102B700000780861606A00F1010CC4F824C0208D5F
:102B8000401E80B22085618D491E61852368596988
:102B900011F0040F0CD058B19CF800001861606A65
:102BA000401C6062208D401E2085608D401E608527
:102BB000208D0028C8D12A463146204601F03EFD2E
:102BC00058B1206C042804D12068016841F40071D8
:102BD000016007B00120BDE8F08F2068016841F472
:102BE00000710160202084F83D0084F83E7084F874
:102BF0003C7007B00020BDE8F08F0000020010001C
:102C00000000FFFF10B586B00446142101A8FDF7AF
:102C1000C0FC2A49206888424DD100BF00200090A6
:102C20002748006840F0040025490860084600680D
:102C300000F00400009000BF00BF00BF0020009023
:102C40000846006840F0010008600846006800F08F
:102C50000100009000BF00BF4815019012200290B3
:102C600000200390032004900420059001A915483A
:102C7000FFF7AAFB4FF48070019012200290002011
:102C80000390032004900420059001A90E48FFF74B
:102C90009BFB00BF0020009009481030006840F402
:102CA00000000749103108600846006800F4000081
:102CB000009000BF00BF06B010BD0000005C0040E7
:102CC000303802400008024000000240024881689B
:102CD00002781144816070474001002010B50B4814
:102CE000016841F400710160016841F48061016094
:102CF000016841F480710160032000F097F80F2013
:102D000000F006F800F026F8002010BD003C02405C
:102D100070B504460D4D4FF47A712878B1FBF0F090
:102D20000B490968B1FBF0F000F006FE08B1012084
:102D300070BD102C07D200222146501E00F042F830
:102D40006C60002070BD012070BD000040010020BB
:102D50001C00002008B500BF00200090114800684A
:102D600040F480400F4908600846006800F4804045
:102D7000009000BF00BF00BF00200090081F006847
:102D800040F08050091F08600846006800F080503D
:102D9000009000BF00BF00220F21901E00F012F82B
:102DA00008BD00004438024000280ADB00F01F0183
:102DB000012202FA01F14009800000F1E020C0F890
:102DC0000011704710B4184B1B68C3F30223C3F102
:102DD000070CBCF1040F01D94FF0040C1C1D072C8B
:102DE00001D2002300E0DB1E012404FA0CFCACF14C
:102DF000010C0CEA0101994004FA03F35B1E1A402E
:102E00001143002806DB00F1E020090180F80014DE
:102E100010BC704700F00F0000F1E020090180F8BD
:102E2000141D10BC704700000CED00E000F007001E
:102E3000064A11684FF6FF03194041EA002040F0AE
:102E4000FD7040F080601060704700000CED00E005
:102E50002DE9F04704460D46002C13D0DFF85491BD
:102E6000D9F80000EFB200F00700A8420DD289F8AF
:102E70000070D9F8000000F00700A84205D001203A
:102E8000BDE8F0870120BDE8F08720684A4E10F0C9
:102E9000020F14D010F0040F03D0306840F4E0505B
:102EA0003060207810F0080F03D0306840F46040A4
:102EB00030603068A16820F0F0000843306020786E
:102EC00010F0010F3ED060683C49012808D002286C
:102ED0000DD003280BD0096811F0020F28D00AE0AA
:102EE000096811F4003F06D10120BDE8F0870968A8
:102EF00011F0007F19D0316821F0030108433060E0
:102F0000FFF780FB80463068616800F00C00B0EB92
:102F1000810F17D041F2883AFFF774FBA0EB08004D
:102F2000504508D90320BDE8F0870120BDE8F087AF
:102F30000120BDE8F0873068616800F00C00B0EB5C
:102F4000810FE9D1D9F8000000F00700A8420AD9A2
:102F500089F80070D9F8000000F00700A84202D0FC
:102F60000120BDE8F087207810F0040F05D030680C
:102F7000E16820F4E05008433060207810F0080F3A
:102F800006D03068216920F4604040EAC10030601A
:102F900000F042F831680A4AC1F30311515CC8409D
:102FA0000849086008480068FFF7B2FE0020BDE845
:102FB000F0870000003C0240083802400038024020
:102FC000CCD500081C000020440100200148006806
:102FD000704700001C00002000B5FFF7F7FF044910
:102FE0000968044AC1F38221515CC84000BD000059
:102FF00008380240DCD5000800B5FFF7E7FF0449B8
:103000000968044AC1F34231515CC84000BD000068
:1030100008380240DCD5000810B51748006810F0E9
:103020000C01164816D0164B042912D0082911D1CC
:10303000144C216801F03F02216811F4800F0AD07E
:103040002068C0F38810A0FB03010023FDF78CF972
:1030500009E0184610BD21680023C1F38811A1FBC7
:103060000001FDF781F92168C1F30141491C4900C4
:10307000B0FBF1F010BD0000083802400024F4005D
:10308000001BB700043802402DE9F84F0446002C1D
:1030900012D02078FB4E10F0010FA6F1040563D08A
:1030A000301D016801F00C0104290CD0006800F00B
:1030B0000C00082803D010E00120BDE8F88F30682C
:1030C00010F4800F09D0286810F4003F4CD06068DD
:1030D000002849D10120BDE8F88F6068B0F5803F35
:1030E00014D0B0F5A02F16D0286820F480302860C6
:1030F000286820F480202860606810B3FFF782FA07
:103100000746286810F4003F0ED02DE0286840F4F0
:1031100080302860F0E7286840F480202860286824
:1031200040F480302860E7E7FFF76CFAC01B6428A2
:1031300002D90320BDE8F88F286810F4003FF3D0CF
:1031400012E0FFF75FFA0746286810F4003F0BD043
:10315000FFF758FAC01B642802D90320BDE8F88F96
:10316000286810F4003FF3D12078C74F10F0020F09
:103170004FF0000957D0C548016811F00C0F14D06A
:10318000006800F00C00082803D1306810F4800FAC
:103190000BD0E06880B301203860FFF733FA804637
:1031A000286810F0020F12D01EE0286810F0020FFD
:1031B00005D0E068012802D00120BDE8F88F28681A
:1031C000216920F0F80040EAC10028602BE0FFF7F9
:1031D00019FAA0EB0800022802D90320BDE8F88FF5
:1031E000286810F0020FF2D02868216920F0F8005A
:1031F00040EAC100286016E0FFE7C7F80090FFF73B
:1032000001FA8046286810F0020F0CD0FFF7FAF997
:10321000A0EB0800022802D90320BDE8F88F286837
:1032200010F0020FF2D1207810F0080F35D0984836
:10323000DFF860A26169C1B101210160FFF7E2F925
:103240008046DAF8000010F0020F26D1FFF7DAF915
:10325000A0EB0800022802D90320BDE8F88FDAF8B5
:10326000000010F0020FF1D017E0C0F80090FFF757
:10327000C9F98046DAF8000010F0020F0DD0FFF710
:10328000C1F9A0EB0800022802D90320BDE8F88F9D
:10329000DAF8000010F0020FF1D1207810F0040FDE
:1032A00071D04FF000087C48006810F0805F0AD1B0
:1032B0007948016841F080510160006800F0805059
:1032C00000904FF00108DFF8D4B1DBF8000010F4F3
:1032D000807F1BD1DBF8000040F48070CBF8000049
:1032E000FFF790F98246DBF8000010F4807F0DD1E3
:1032F000FFF788F9A0EB0A00022802D90320BDE8F5
:10330000F88FDBF8000010F4807FF1D0A068DFF8C0
:1033100090B1012818D005281DD0DBF8000020F05E
:103320000100CBF80000DBF8000020F00400CBF82F
:103330000000A06840B3FFF765F98246DBF80000A3
:1033400010F0020F14D03EE0DBF8000040F0010066
:10335000CBF80000EDE7DBF8000040F00400CBF80C
:103360000000DBF8000040F00100CBF80000E0E7CF
:10337000FFF748F9A0EB0A0141F28830814204D9F5
:103380000320BDE8F88F26E005E0DBF8000010F030
:10339000020FEDD017E0FFF735F98246DBF80000A9
:1033A00010F0020F0FD0FFF72DF9A0EB0A0141F248
:1033B0008830814202D90320BDE8F88FDBF8000095
:1033C00010F0020FEFD1B8F1010F04D132480168BB
:1033D00021F080510160A069F0B32C4909684FF0D9
:1033E000FF3801F00C01082966D0022810D0C7F878
:1033F0006090FFF707F90446286810F0007F2BD093
:10340000FFF700F9001B022851D90320BDE8F88F0F
:10341000C7F86090FFF7F6F88146286810F0007F43
:103420000CD0FFF7EFF8A0EB0900022802D9032027
:10343000BDE8F88F286810F0007FF2D1216AE069BA
:10344000A26A0843616A08EB5202890141EA02411B
:10345000084394F82C1000E055E040EA0160306029
:1034600001203866FFF7CEF80446286810F0007F88
:1034700049D1FFF7C7F8001B022813D90320BDE884
:10348000F88F00000438024000004742083802402C
:10349000800E4742743802404038024000700040BD
:1034A00070380240286810F0007FE2D02BE02868D6
:1034B00010F0007FA4D126E0012822D03068E26914
:1034C00000F4800191421AD1226A00F03F0191423A
:1034D00015D147F6C071626A0140B1EB821F0ED16F
:1034E000A26A00F4403108EB5202B1EB024F06D160
:1034F00094F82C1000F07060B0EB016F03D0012045
:10350000BDE70120BBE70020B9E770B50446002CF9
:1035100009D0606A002540B125616561A56294F813
:10352000510040B10CE0012070BD6068B0F5827FB1
:10353000F4D0E561F2E784F85050204600F044F8FA
:10354000022084F851002068016821F040010160E8
:10355000A088218900F4827001F404410843A18904
:1035600001F400610843217C01F002010843217D40
:1035700001F001010843218B01F400710843217F10
:1035800001F03801084394F8201001F0800108434D
:10359000218D01F40051084321680860A1690420CD
:1035A00000EA114094F8241001F010010143206852
:1035B00041602068C16921F40061C1616565012035
:1035C00084F85100002070BD10B586B00446142167
:1035D00001A8FCF7DEFF4B49206888427ED100BF7E
:1035E000002000904848006840F480504649086038
:1035F0000846006800F48050009000BF00BF00BF84
:103600000020009040481438006840F002003E4915
:10361000143908600846006800F00200009000BFFE
:1036200000BF00BF002000900846006840F0010085
:1036300008600846006800F00100009000BF00BF6D
:103640001820019002200290012003900320049092
:103650000520059001A92D48FEF7B6FE80200190B7
:103660000220029001200390032004900520059081
:1036700001A92748FEF7A8FE2648274908604FF011
:10368000C0604860002124488160C1604FF48061BF
:103690000161002141618161C1614FF440310162EA
:1036A00000214162FEF7A4FD08B1FDF735FF00BF20
:1036B0001948E064846300BF164818301749086051
:1036C0004FF0C06048604021144881600021C16013
:1036D0004FF4806101610021416100E010E08161EF
:1036E000C1614FF40031016200214162FEF780FDAB
:1036F00008B1FDF711FF00BF0848A064846300BF54
:1037000006B010BD003001404438024000040240C1
:1037100000000240406402406C090020CC090020F7
:103720002DE9F84F04460A9E8A4693461F46012516
:10373000FEF768FF804694F851006168012809D0BF
:10374000B1F5827F03D1A16809B9042802D0022013
:10375000BDE8F88FBAF1000F28D0BBF1000F25D0DB
:10376000380023D094F85000012822D0012084F89A
:10377000500094F85100042802D0052084F851002C
:103780004FF00009C4F85490C4F838B0E787A78711
:10379000C4F830A0E786A786C4F84090C4F84490E7
:1037A0002068016811F0400F06D009E00120BDE853
:1037B000F88F0220BDE8F88F016841F040010160F8
:1037C000E068B0F5006F05D0606800284DD0012F8B
:1037D0004BD083E0606808B1012F3FD1206B216896
:1037E0000088C860206B801C2063E08E401EE0864D
:1037F00034E02068816811F0020F0DD0E18E59B1DC
:10380000012D09D1216B0988C160206B801C2063C8
:10381000E08E401EE08600252068816811F0010FCF
:103820000BD0E18F49B1C068A16B0880A06B801CF0
:10383000A063E08F401EE0870125FEF7E3FEA0EBCA
:103840000800B0420AD3B6F1FF3F07D0012084F848
:10385000510084F850900320BDE8F88FE08E0028D6
:10386000C7D1E08F0028C4D13EE0206B21680078EA
:103870000873206B401C2063E08E401EE0862DE024
:103880002068816811F0020F0DD0E18E59B1012D31
:1038900009D1216B09780173206B401C2063E08EF5
:1038A000401EE08600252068816811F0010F0BD0D2
:1038B000E18F49B1C068A16B0870A06B401CA06388
:1038C000E08F401EE0870125FEF79CFEA0EB08007C
:1038D000B04202D3B6F1FF3F13D196B1E08E00287B
:1038E000CED1E08F0028CBD142463146204604F0AD
:1038F000DBFE70B12020606584F850900120BDE8A7
:10390000F88F012084F8510084F850900320BDE81E
:10391000F88FA06818B92068C168806800900120FD
:1039200084F8510084F85090606D10B10120BDE81A
:10393000F88F0020BDE8F88F401EB0F1807F01D3E2
:10394000012070474FF0E0214861044AF0201070D8
:1039500000208861072008610020704723ED00E007
:1039600030B490F83C20012A44D0012480F83C4037
:10397000022280F83D200268D2F804C093682CF03F
:10398000700C0D6845EA0C0CC2F804C00268A2F184
:10399000804CBCF5803C20D0B2F1804F1DD0A2F10C
:1039A000804CBCF5806C18D0A2F1804CBCF5006C4A
:1039B00013D0A2F1804CBCF5406C0ED0A2F1804C2B
:1039C000BCF5823C09D0A2F1804CBCF5A03C04D0EF
:1039D000A2F1804CBCF5C05C04D123F0800349689F
:1039E0001943916080F83D40002180F83C1030BCC4
:1039F0000020704730BC0220704710B50446002CF0
:103A000003D094F83D0010B107E0012010BD002064
:103A100084F83C00204600F01FF8022084F83D00A6
:103A2000211D206804F084FF012084F8460084F8FA
:103A30003E0084F83F0084F8400084F8410084F898
:103A4000420084F8430084F8440084F8450084F878
:103A50003D00002010BD000008B5154A01689142E4
:103A60000FD100BF002100911249096841F00801FF
:103A7000104A11601146096801F00801009100BF69
:103A800015E00D4A0168914211D100BF002100915B
:103A90000849091D096841F40031064A121D1160E8
:103AA0001146096801F40031009100BF00BF08BD54
:103AB000000C0040403802400044014090F83D10A6
:103AC000012901D001207047022180F83D100068D3
:103AD000A0F18041B1F5803126D0B0F1804F23D0E4
:103AE000A0F18041B1F580611ED0A0F18041B1F517
:103AF000006119D0A0F18041B1F5406114D0A0F16E
:103B00008041B1F582310FD0A0F18041B1F5A031F3
:103B10000AD0A0F18041B1F5C05105D0016841F053
:103B20000101016000207047816801F0070106294A
:103B3000F8D0016841F001010160F3E770B5044677
:103B4000002594F83C00012818D0012684F83C6038
:103B5000022084F83D002068826822F0770222F477
:103B60007F4282600868502839D00EDC202854D06B
:103B700006DC002851D0102811D14EE0022070BD83
:103B800030284AD040280AD13DE0602831D0702842
:103B90000DD0B0F5805F03D0B0F5005F13D00125E4
:103BA00084F83D60002084F83C00284670BDCB6856
:103BB0004A688968206804F03CFF2068816841F009
:103BC00077018160ECE7CB684A688968206804F077
:103BD00030FF2068816841F480418160E0E7CA6875
:103BE0004968206805F014F85021206804F02CFF83
:103BF000D6E7CA684968206805F01DF8602120688A
:103C000004F022FFCCE7CA684968206805F000F894
:103C10004021206804F018FFC2E7226801461046E0
:103C200004F012FFBCE7000010B586B00446142172
:103C300001A8FCF7AEFC2E49206888422DD100BFB8
:103C4000002000902B48006840F08000294908605F
:103C50000846006800F08000009000BF00BF4FF4ED
:103C6000E050019002200290012003900220049075
:103C7000059001A92048FEF7A7FB2048FFF71EFF8B
:103C800000211E4800F0DEF804211C4800F0DAF89C
:103C900008211A4800F0D6F828E01949206888421F
:103CA00024D100BF002000901248006840F020009E
:103CB000104908600846006800F02000009000BF2E
:103CC00000BF4020019002200290012003900220BA
:103CD00004900320059001A90A48FEF775FB0A48E5
:103CE000FFF7ECFE0021084800F0ACF806B010BD6C
:103CF000000C004030380240001C02402C0A00201A
:103D00000044014000140240740A002070B50446CB
:103D10000D46002694F83C0001280FD0012084F8BD
:103D20003C006AB1042A1FD0082A32D00C2A44D0A1
:103D30000126002084F83C00304670BD022070BD92
:103D40002946206804F088FE2068816941F0080156
:103D500081612068816921F00401816120688169A5
:103D60002A6911438161E4E72946206804F0ACFE2A
:103D70002068816941F4006181612068816921F4D2
:103D800080618161206881692A6941EA022181613B
:103D9000CFE72946206804F0D3FE2068C16941F0CE
:103DA0000801C1612068C16921F00401C161206876
:103DB000C1692A691143C161BBE72946206804F043
:103DC000FBFE2068C16941F40061C1612068C169DE
:103DD00021F48061C1612068C1692A6941EA022138
:103DE000C161A6E710B50446002C03D094F83D004D
:103DF00010B107E0012010BD002084F83C002046EF
:103E000000F01EF8022084F83D00211D206804F017
:103E10008FFD012084F8460084F83E0084F83F00BE
:103E200084F8400084F8410084F8420084F843009C
:103E300084F8440084F8450084F83D00002010BD5B
:103E40007047000010B50446002909D004290AD0A3
:103E500008290BD094F8410001280AD0012010BD98
:103E600094F83E00F8E794F83F00F5E794F8400036
:103E7000F2E70220D9B3042947D0082948D084F8B2
:103E800041000122206804F0C5FD234A206823492F
:103E9000904201D0884203D1436C43F40043436411
:103EA0002068904224D0B0F1804F21D0A0F1804210
:103EB000B2F580621CD0A0F18042B2F5006217D04A
:103EC000A0F18042B2F5406212D0884210D0A0F139
:103ED0008041B1F5A0310BD0A0F18041B1F5C051C6
:103EE00006D0016841F001010160002010BD09E029
:103EF000816801F007010629F7D0016841F001014E
:103F00000160F2E784F83E00BBE784F83F00B8E7C1
:103F100084F84000B5E700000000014000040140C3
:103F200070477047F8B5044622681068D168536935
:103F300000F00F0CBCF1000F0AD110F0200F07D0D9
:103F400011F0200F04D02046BDE8F84004F0C3BEB5
:103F50000025BCF1000F75D003F0010C01F4907640
:103F60005CEA06066ED010F0010F06D011F4807FD7
:103F700003D0626C42F00102626410F0040F06D0BC
:103F800013F0010F03D0626C42F00202626410F081
:103F9000020F06D013F0010F03D0626C42F004024E
:103FA000626410F0080F08D001F0200252EA0C02FF
:103FB00003D0626C42F008026264626C002A35D061
:103FC00010F0200F05D011F0200F02D0204604F091
:103FD00082FE20684069C0F38010616C11F0080F08
:103FE00000D148B3204604F042FE2068406910F03A
:103FF000400F1CD02068143050E8001F21F0400111
:1040000040E80012002AF5D1E06B60B15E4901651D
:10401000E06BFDF7E4FF002808D0E06B016D01B014
:10402000BDE8F04008472046FFF77BFFF8BD20467B
:10403000FFF777FFF8BD05E0FFE72046FFF771FFC8
:104040006564F8BD236B012B7ED110F0100F7BD07F
:1040500011F0100F78D010685068009050694FF040
:10406000200310F0400F4FF0020644D0E16B0868C7
:10407000406880B20028E4D0A28D8242E1D9E08578
:10408000C869B0F5807F2DD020680C3050E8001F43
:1040900021F4807140E80012002AF5D12068143024
:1040A00050E8001F21F0010140E80012002AF5D17C
:1040B0002068143050E8001F21F0400140E8001251
:1040C000002AF5D184F84230256320680C3050E88E
:1040D000001F21F0100140E80012002AF5D1E06B2A
:1040E000FDF72CFF6663A08DE18D401A81B220465A
:1040F000FFF716FFF8BDA08DE18D401A81B2E08D6B
:104100000028F7D00029F5D020680C3050E8002FA7
:1041100022F4907240E8002CBCF1000FF4D120682A
:10412000143050E8002F22F0010240E8002CBCF1CE
:10413000000FF4D184F84230256320680C3050E839
:10414000002F22F0100200E008E040E80023002BDE
:10415000F3D166632046FFF7E3FEF8BD10F0800F51
:1041600007D011F0800F04D02046BDE8F84004F0DD
:1041700095BE10F0400FF0D011F0400FEDD020466A
:10418000BDE8F84004F09ABD5F8C000870B50446A5
:10419000002C04D094F84100002510B106E0012065
:1041A00070BD84F84050204600F024F8242084F8A4
:1041B00041002068C16821F40051C160204604F02C
:1041C000EFFD2068016921F4904101612068416997
:1041D00021F02A0141612068C16841F40051C160A9
:1041E0006564202084F8410084F842006563002063
:1041F00070BD000010B586B00446142101A8FCF77C
:10420000C8F96C492068884275D100BF0020009031
:104210006948006840F01000674908600846006877
:1042200000F01000009000BF00BF00BF0020009011
:1042300061481438006840F002005F491439086092
:104240000846006800F00200009000BF00BF00BFF9
:10425000002000900846006840F001000860084611
:10426000006800F00100009000BF00BF80200190B6
:104270000220029000200390032004900720059064
:1042800001A94E48FEF7A0F84FF4007001900220FB
:10429000029000200390032004900720059001A9BC
:1042A0004748FEF791F84748474908604FF00060DB
:1042B00048604021444881600021C1604FF4806122
:1042C0000161002141618161C16101624162FDF7CB
:1042D0008FFF08B1FDF720F900BF3B48A06384635E
:1042E00000BF002205212520FEF76CFD2520FEF7EA
:1042F0005BFD5CE0FFE735492068884257D100BF8D
:10430000002000902C48001F006840F480202A49BB
:10431000091F08600846006800F48020009000BF74
:1043200000BF00BF0020009023481438006840F010
:1043300004002149143908600846006800F00400B0
:10434000009000BF00BF4FF4406001900220029037
:1043500000200390032004900720059001A91C4829
:10436000FEF732F81B481C4908604FF000604860B7
:10437000002119488160C1604FF480610161002112
:1043800041618161C16101624162FDF731FF08B1A4
:10439000FDF7C2F800BF1048E063846300BF00224D
:1043A00004212720FEF70EFD2720FEF7FDFC06B0B6
:1043B00010BD0000001001404438024000040240DB
:1043C00000000240B86402404C0B0020004800404E
:1043D0000008024028600240AC0B00207047704784
:1043E00000BFFEE701684A6912F4806F11D06FF4D4
:1043F00080624A6100210163202280F83D2080F81C
:104400003E10026C42F00402026480F83C1001206D
:1044100070470020704700002DE9F84F0446DDF892
:1044200028A00B9D0F4690461E462068016841F467
:10443000806101602068016841F480710160534629
:1044400000224FF001112046009500F02AF94FF4A8
:10445000007948B12068006810F4807F01D0C4F86A
:1044600040900320BDE8F88F216807F0FE00086146
:10447000DFF8F4B02B4652465946204600F086F944
:1044800010B10120BDE8F88F206841698069009073
:104490002A465146204600F032FA50B1206C0428DA
:1044A00004D12068016841F4007101600120BDE879
:1044B000F88F304608F0FF0601280DD021684FEA3A
:1044C000182008612A465146204600F018FA70B1BB
:1044D000206C042803D007E02068066109E020680A
:1044E000016841F4007101600120BDE8F88F206887
:1044F00006612A465146204600F001FA50B1206C70
:10450000042804D12068016841F400710160012091
:10451000BDE8F88F2068016841F48071016053465E
:1045200000224FF001112046009500F0BAF848B182
:104530002068006810F4807F01D0C4F84090032008
:10454000BDE8F88F2168F8B240F0010008612B4601
:1045500052465946204600F019F910B10120BDE835
:10456000F88F0020BDE8F88F020001002DE9F84324
:104570000446DDF82090099F0D46164698462068AF
:10458000016841F4807101604B4600224FF0011137
:104590002046009700F085F850B12068006810F4BC
:1045A000807F02D04FF4007020640320BDE8F883C0
:1045B000216805F0FE0008613B464A461E49204638
:1045C00000F0E4F810B10120BDE8F88320684169EB
:1045D000806900903A464946204600F090F950B173
:1045E000206C042804D12068016841F40071016046
:1045F0000120BDE8F883F5B2B8F1010F0CD02168B5
:10460000300A08613A464946204600F078F970B110
:10461000206C042803D007E02068056109E02068C9
:10462000016841F4007101600120BDE8F883206851
:1046300005610020BDE8F8830200010070B5044662
:104640000D4616462068406910F0040F18D1204628
:10465000FFF7C8FE08B1012070BDB5F1FF3F0AD0D9
:10466000FDF7D0FF801BA84200D825B9206840691B
:1046700010F0040F06D02068406910F0040FE6D057
:10468000002070BD00202063202184F83D1084F8B4
:104690003E00216C41F02001216484F83C0001209F
:1046A00070BD2DE9F0470446DDF820900D46174611
:1046B0001E46C5F307482068B8F1010F13D0806982
:1046C00025EA00000004000C17D00020B8424DD1AC
:1046D000B6F1FF3F3DD0FDF795FFA0EB0900B042DA
:1046E0000DD866B135E0406925EA00000004000CF1
:1046F00001D00020EAE70120E8E70120E6E7B8F171
:10470000010F19D02068806925EA00000004000C20
:104710001DD00020B8421CD100202063202184F845
:104720003D1084F83E00216C41F02001216484F8A2
:104730003C000120BDE8F0872068406925EA0000C0
:104740000004000C01D00020E4E70120E2E7012092
:10475000E0E7B8F1010F0CD02068806925EA00007D
:104760000004000C10D00020B842B1D00020BDE8F9
:10477000F0872068406925EA00000004000C01D0A1
:104780000020F1E70120EFE70120EDE72DE9F047F8
:1047900004460D4616469846C5F307472068012F84
:1047A00026D0806925EA00000004000C59D04FF0A3
:1047B00000094FF0200A2068406910F4806F1ED075
:1047C0002068016841F40071016021686FF4806025
:1047D0004861C4F8309084F83DA084F83E90206C85
:1047E00040F00400206484F83C900120BDE8F0878C
:1047F000406925EA00000004000C32D0D7E7B6F18A
:10480000FF3F25D0FDF7FEFEA0EB0800B04200D828
:10481000F6B9012F15D02068806925EA0000000450
:10482000000C15D0C4F8309084F83DA084F83E9078
:10483000206C40F02000206484F83C900120BDE80A
:10484000F0872068406925EA00000004000CE9D1E7
:10485000012F09D02068806925EA00000004000CBF
:10486000A9D10020BDE8F0872068406925EA000052
:104870000004000C9FD1F4E72DE9F04104460D46F9
:1048800016462068406910F0400F27D100274FF0EE
:1048900020082068406910F0100F0FD020686FF0DA
:1048A00010014161276384F83D8084F83E70206CDC
:1048B000206484F83C700120BDE8F081FDF7A2FE81
:1048C000801BA84200D825B92068406910F0400F2D
:1048D00007D02068406910F0400FDAD00020BDE812
:1048E000F081276384F83D8084F83E70206C40F0AE
:1048F0002000206484F83C700120BDE8F08170B590
:1049000004460D4616462068406910F0800F18D105
:104910002046FFF767FD08B1012070BDB5F1FF3FEC
:104920000AD0FDF76FFE801BA84200D825B9206889
:10493000406910F0800F06D02068406910F0800FA9
:10494000E6D0002070BD00202063202184F83D10B7
:1049500084F83E00216C41F02001216484F83C0081
:10496000012070BD08B5072006F0BAF802E0642007
:1049700006F0B6F8FBF7A0FF0028F8D102E06420AB
:1049800006F0AEF805F044FE0028F8D18A4AA2F1FC
:104990000C01101DFBF7AAFF8848874B103B884A83
:1049A00088490090884805F0FBFBDFED880A9FED01
:1049B000880A884A0021884801F09AF97F4A121D26
:1049C0007D490C398548FBF779FE002006F0C4F8D4
:1049D000044607F0C3FD8249086010218148C16187
:1049E000FEF793FD08B1FCF797FD08227E497F484A
:1049F00003F09AFD01207E490870DBE000BF4FF014
:104A0000FF31012006F064FF0128F8D179480078D1
:104A100000F0080058B17748007820F00800754988
:104A200008706549091D7048401CFBF711FF72486A
:104A3000007800F0040060B16F48007820F00400B6
:104A40006D4908705C4A1032A2F11C016B48FBF7FB
:104A5000A9FE6B48007800F0040088B1684800782F
:104A600020F004006649087053496648FCF72CF8AA
:104A700051481038D0ED040AB0EE600A05F000FD90
:104A80004E484D4B103B4E4A4E4900904E4805F063
:104A900087FB5D4890ED000A5C4880ED000A5C48A9
:104AA00090ED000A584880ED000A90ED000A594840
:104AB000D0ED000A20EE200A5448D0ED000A5548F7
:104AC00090ED011A00EE810A3E48D0ED000A5148EF
:104AD00090ED021A00EE810A4D4880ED000A4A4826
:104AE00090ED010A494880ED010A494890ED010A1C
:104AF000454880ED010A90ED010A4648D0ED000AD4
:104B000020EE200A4148D0ED010A424890ED011AFA
:104B100000EE810A2B48D0ED010A3E4890ED021AC2
:104B200000EE810A3A4880ED010A374890ED020A0A
:104B3000364880ED020A364890ED020A324880ED90
:104B4000020A90ED020A3348D0ED000A20EE200A56
:104B50002E48D0ED020A2F4890ED011A00EE810A8E
:104B60001848D0ED020A2B4890ED021A00EE810A97
:104B7000274880ED020A124B024613499FED260A90
:104B80001648FBF7AFFD254B1A1F111F134805F000
:104B900095FA2348007800F001002149087048B1D7
:104BA0000846007820F0010008700846007840F0C0
:104BB0000200087022E70000280C00206C0C002086
:104BC000180D00200C0D0020000D002000808945EC
:104BD00000A08C45E4D50008940C0020240D002092
:104BE0003000002014090020340000203C00002088
:104BF0005900002055000020560000200E0C002017
:104C0000570000204F000020E80C0020DC0C0020A2
:104C1000F40C0020F0D500086F12833A3C0D002000
:104C20005800002010B5044604B910BD94ED151AC3
:104C3000F0EE410A94ED141AB0EE410A201D00F086
:104C400039FF84ED170A94ED170ABDEEC00A10EE85
:104C5000100A00B2A4F8640000BFE6E710B50E48E1
:104C60000E4908600320486000210C488160C16043
:104C70004FF4102101614FF40011416100210176D0
:104C800041768176C17601774177FCF73AFF08B12A
:104C9000FCF742FC10BD00000064004070080020DA
:104CA00010B50E480E4908600320486000210C48EA
:104CB0008160C1604FF4102101614FF40011416126
:104CC0000021017641768176C17601774177FCF744
:104CD00018FF08B1FCF720FC10BD00000068004080
:104CE0009808002008B500BF002000901E4800680A
:104CF00040F480001C4908600846006800F4800009
:104D0000009000BF00BF00BF002000900846006870
:104D100040F4001008600846006800F4001000909D
:104D200000BF00BF002205210C20FEF74BF80C202D
:104D3000FEF73AF8002205213A20FEF743F83A2020
:104D4000FEF732F8002205213B20FEF73BF83B201E
:104D5000FEF72AF8002205214620FEF733F8462008
:104D6000FEF722F808BD00003038024000B5ABB0B5
:104D70001C22244924A8FBF7D2FB002124A805F01B
:104D8000BCFE214908601C221E491C311DA8FBF7EE
:104D9000C6FB00211DA805F0B0FE1C4908601C22BE
:104DA0001849383116A8FBF7BAFB002116A805F000
:104DB000A4FE174908601C22124954310FA8FBF7C2
:104DC000AEFB00210FA805F098FE124908601C22D6
:104DD0000C49703108A8FBF7A2FB002108A805F0D8
:104DE0008CFE0D4908601C2206498C3101A8FBF796
:104DF00096FB002101A805F080FE084908602BB051
:104E000000BD000024D50008080000200C00002090
:104E100010000020140000200000002004000020EA
:104E200000B587B0142102A8FBF7B3FB00BF002038
:104E300001906648006840F0020064490860084636
:104E4000006800F00200019000BF00BF00BF00201A
:104E500001900846006840F00100086008460068BC
:104E600000F00100019000BF00BF00BF00200190D2
:104E70000846006840F0080008600846006800F036
:104E80000800019000BF00BF00BF0020019008464D
:104E9000006840F0040008600846006800F0040064
:104EA000019000BF00BF00BF0020019008460068CD
:104EB00040F0800008600846006800F08000019023
:104EC00000BF00BF00BF002001900846006840F00E
:104ED000400008600846006800F04000019000BFF4
:104EE00000BF00BF002001900846006840F020008D
:104EF00008600846006800F02000019000BF00BF75
:104F0000012240213248FDF775FB01221021314872
:104F1000FDF770FB012211462F48FDF76BFB402087
:104F20000290012003900490059002A92848FDF703
:104F30004BFA092002904FF40410039001200490D2
:104F400002A92348FDF740FA1020029001200390A7
:104F500004900220059002A91E48FDF735FA302082
:104F600002904FF4041003900120049002A91B4802
:104F7000FDF72AFA01200290039004900220059088
:104F800002A91548FDF720FA002206210846FDF780
:104F900019FF0620FDF708FF002205210920FDF773
:104FA00011FF0920FDF700FF002205210A20FDF76F
:104FB00009FF0A20FDF7F8FE002205211720FDF762
:104FC00001FF1720FDF7F0FE07B000BD30380240AA
:104FD00000180240000002400004024000080240A5
:104FE00010B50B480B4908600B4848600021094880
:104FF0008160C1604FF480410161002141618161A4
:10500000C1610162FDF704FB08B1FCF785FA10BD30
:10501000005C0040C0080020801A060010B50F4850
:105020000F4908604FF48270486000210C4881608D
:10503000C160022101610121416149028161382180
:10504000C16100210162416281620A21C162FEF7F1
:105050005CFA08B1FCF760FA10BD000000300140B6
:105060001409002000B587B01C216846FBF791FAAF
:1050700015481649086000204860002113488160E7
:1050800041F28731C160002101618161FEF7B5FC09
:1050900008B1FCF741FA0D48FEF7A4FE08B1FCF791
:1050A0003BFA6020009000200190029004900022C2
:1050B00069460648FEF72AFE08B1FCF72DFA0348B8
:1050C000FEF7B2FD07B000BD00440140740A0020A5
:1050D00000B58DB0002009900A900B900C900790BD
:1050E00008901C216846FBF754FA284828490860B4
:1050F000002048600021264881604FF6FF71C160A2
:10510000002101618161FEF778FC08B1FCF704FA27
:105110004FF48050099009A91D48FEF70FFD08B112
:10512000FCF7FAF91A48FEF75DFE08B1FCF7F4F94E
:1051300000200790089007A91548FEF711FC08B158
:10514000FCF7EAF9602000900020019002900490A2
:10515000002269460E48FEF7D9FD08B1FCF7DCF9DC
:10516000042269460A48FEF7D1FD08B1FCF7D4F9DC
:10517000082269460648FEF7C9FD08B1FCF7CCF9DC
:105180000348FEF751FD0DB000BD0000000C0040CB
:105190002C0A002010B50B480B4908604FF4E13091
:1051A0004860002108488160C16001610C214161B3
:1051B00000218161C161FEF7E9FF08B1FCF7ACF99C
:1051C00010BD000000100140BC0A002010B50A48C4
:1051D0000A4908600A484860002108488160C160A7
:1051E00001610C21416100218161C161FEF7CEFFA7
:1051F00008B1FCF791F910BD00480040040B0020F5
:10520000A086010010B52DED108B98B00446B0EECD
:1052100040AAF0EE60AAB0EE41BAF0EE61CAF0EE3C
:1052200042BAB0EE62CAF0EE439AB0EE638AF0EE94
:10523000448AF5EEC09AF1EE10FA1CD1B5EEC08AA0
:10524000F1EE10FA17D1F5EEC08AF1EE10FA12D194
:10525000F0EE4C2AB0EE6B2AF0EE6C1AB0EE4B1A60
:10526000F0EE6A0AB0EE4A0A204600F0A1FA18B041
:10527000BDEC108B10BDF5EEC0CAF1EE10FA09D1ED
:10528000F5EEC0BAF1EE10FA04D1B5EEC0CAF1EEF7
:1052900010FA7CD06CEEAC0A4BEEAB0A4CEE0C0A6A
:1052A000B0EE600A05F03EF9B0EE409A2CEE890AA5
:1052B000F0EE40CA2BEE890AF0EE40BA2CEE090A55
:1052C000B0EE40CA69EEA90A48EE080A48EEA80AFC
:1052D000B0EE600A05F026F9B0EE409A29EE890A90
:1052E000F0EE409A28EE090AB0EE408A28EE890ACC
:1052F000F0EE408A94ED000A20EE000A8DED170AC8
:1053000094ED000AD4ED010A20EE20EA94ED000AA3
:10531000D4ED020A20EE20DA94ED000AD4ED030A5F
:1053200020EE200A8DED160A94ED010A20EE000A07
:105330008DED150A94ED010AD4ED020A20EE200A43
:105340008DED140A94ED010AD4ED030A60EE20DA23
:1053500094ED020A60EE00EA94ED020AD4ED030A2D
:1053600020EE20FA94ED030A60EE00FAB6EE000A91
:1053700030EE6E0A30EE6F0A20EE291A9DED140A07
:10538000DDED160A70EE600AB0EE410A00E060E161
:1053900008EE200A7DEE8D0A08EEA00AF0EE000A63
:1053A00020EE200A8DED130A9DED140ADDED160A9C
:1053B00030EE200A60EE290A9DED150AB6EE001ABD
:1053C00031EE400A30EE6F1AB0EE600A08EE010AC4
:1053D0007FEE4E0A08EEA00AF0EE000A20EE200A48
:1053E0008DED120A9DED130A60EE000A9DED120A82
:1053F00040EE000A10EE901A084608F017F8CDE9C2
:1054000000019DED000B03F0F1FF8DED020B9DED12
:10541000020B51EC100B07F0C3FA11903DEECD0AD0
:1054200020EE290A7FEE0E0A08EE200ADDED150AAD
:10543000B6EE001A71EE600A70EEEE0A08EEA00AEF
:10544000F0EE000A20EE200A8DED100A3DEECD0AA6
:105450008DED0F0A3EEE0F0A8DED0E0A9DED170A37
:10546000F6EE000A30EE600A30EE2F0A8DED0D0ADE
:10547000B6EE000A30EE6E0A70EE6F0A9DED110A6C
:1054800020EE800A3DEECD1ADDED100A00EE810A15
:105490008DED0C0A9DED140ADDED160A70EE600A22
:1054A0009DED110A20EE800A3EEE0F1ADDED100A86
:1054B00000EE810A8DED0B0A7DEE2D0A9DED110A9D
:1054C00020EE801A9DED150AF6EE000A30EEC00AB5
:1054D00070EE6E1ADDED100AB0EE410A00EEA10A80
:1054E0008DED0A0A9DED0D0A6BEE800A9DED0E0A08
:1054F0004CEE400A9DED0A0A28EE001A9DED0B0ABB
:1055000008EEC01A30EE810A8DED090A9DED0F0AF2
:105510006CEE000A9DED0D0A4CEEC00A9DED0C0AE2
:1055200028EE801A9DED0A0A09EEC01A30EE810AB3
:105530008DED080A9DED0E0A6CEE800A9DED0F0AB6
:105540004BEEC00A9DED0B0A29EE801A9DED0C0A68
:1055500008EE401A30EE810A8DED070A8C4890ED76
:10556000000AB5EEC00AF1EE10FA44DDD0ED000AF3
:105570009DED090A60EE800A864890ED000A9FEDD5
:10558000861A00EE810A80ED000A8148D0ED000AFB
:105590009DED080A60EE800A804890ED000A9FEDBC
:1055A0007E1A00EE810A80ED000A7948D0ED000AEB
:1055B0009DED070A60EE800A794890ED000A9FEDA4
:1055C000761A00EE810A80ED000A724890ED000A1A
:1055D0003AEE000AB0EE40AA704890ED000A3AEEAA
:1055E000800AF0EE40AA6E4890ED000A3BEE000AF9
:1055F000B0EE40BA0EE09FED6B0A664880ED000AFF
:105600009FED680A654880ED000A9FED660A6448D0
:1056100080ED000A644890ED001A9DED090AF0EE55
:105620004A0A41EE000AB0EE60AA90ED001A9DED24
:10563000080AF0EE6A0A41EE000AF0EE60AA90ED68
:10564000001A9DED070AF0EE4B0A41EE000AB0EE9B
:1056500060BA9FED560A2AEE000AB0EE40AA9FED0E
:10566000530A2AEE800AF0EE40AA9FED500A2BEE74
:10567000000AB0EE40BA94ED000A8DED060A94EDF2
:10568000010A8DED050A94ED020A8DED040A9DEDE7
:10569000050AB1EE400A60EE0A0A9DED040A40EEEA
:1056A0006A0A94ED030A40EE4B0A94ED000A30EECC
:1056B000800A84ED000A9DED060A60EE0A0A9DED5F
:1056C000040A40EE0B0A94ED030A40EE6A0A94EDD8
:1056D000010A30EE800A84ED010A9DED060A60EEB3
:1056E0002A0A9DED050A40EE4B0A94ED030A40EEAE
:1056F0000A0A94ED020A30EE800A84ED020A9DED5A
:10570000060A20EE0B0ADDED050A00EEAA0ADDED21
:10571000040A00EECA0AD4ED030A30EE200A84ED32
:10572000030AD4ED000A60EEA00A94ED011AD4ED4C
:10573000011A41EE210A94ED021AD4ED021A41EE4B
:10574000210A94ED031AD4ED031A41EE210AB0EEBA
:10575000600A04F0E7FEB0EE409A94ED000A20EEF5
:10576000090A84ED000A94ED010A20EE090A84ED8D
:10577000010A94ED020A20EE090A84ED020A94ED72
:10578000030A20EE090A84ED030A00BF6FE500005A
:1057900004010020080100206F12833A0C01002050
:1057A0001001002000000000000100206F12033AE9
:1057B00000B52DED068B0246B0EE403AF0EE603AB1
:1057C000B0EE414AF0EE615AF0EE424AB0EE625A53
:1057D000F5EEC05AF1EE10FA09D1F5EEC04AF1EE3D
:1057E00010FA04D1B5EEC05AF1EE10FA7ED065EE93
:1057F000A50A44EEA40A45EE050AB0EE600A04F0DC
:1058000091FEF0EE402A25EEA20AF0EE405A24EE78
:10581000A20AF0EE404A25EE220AB0EE405A92ED7E
:10582000010AD2ED030A20EE200AD2ED000A92ED21
:10583000021AF0EE408A40EEC18A92ED000AD2EDE3
:10584000010A20EE200AD2ED020A92ED031AF0EED0
:10585000409A40EE819AD2ED000A92ED001AB6EE1F
:10586000000A10EE810AD2ED030A92ED031AB0EE9F
:10587000409A00EE819A24EE890AF0EE407A45EED5
:10588000697A25EE280AB0EE40AA05EEC9AA25EEEF
:10589000A90AB0EE408A04EEE88A7C4890ED000A3E
:1058A000B5EEC00AF1EE10FA40DD90ED000A60EEB0
:1058B000270A774890ED000A9FED761A00EE810ADC
:1058C00080ED000A714890ED000A60EE0A0A724805
:1058D00090ED000A9FED6F1A00EE810A80ED000A3C
:1058E0006A4890ED000A60EE080A00E046E06B4866
:1058F00090ED000A9FED671A00EE810A80ED000A24
:10590000634890ED000A33EE000AB0EE403A624878
:1059100090ED000A33EE800AF0EE403A5F4890EDD9
:10592000000A34EE000AB0EE404A0EE09FED5C0A39
:10593000574880ED000A9FED5A0A574880ED000A4B
:105940009FED570A554880ED000A5648D0ED000AF1
:10595000B0EE430A00EEA70AB0EE403AD0ED000ADE
:10596000B0EE630A00EE8A0AF0EE403AD0ED000A8B
:10597000B0EE440A00EE880AB0EE404A9FED4A0AB3
:1059800023EE000AB0EE403A9FED470A23EE800A6C
:10599000F0EE403A9FED440A24EE000AB0EE404A91
:1059A00092ED006AD2ED016A92ED027AB1EE660ADA
:1059B00020EE030A07EE630AD2ED030A00EEC40AE2
:1059C000D2ED000A30EE200A82ED000A26EE030A2C
:1059D00007EE040AD2ED030A00EEE30AD2ED010A53
:1059E00030EE200A82ED010A26EE230A06EEC40AF2
:1059F000D2ED030A00EE830AD2ED020A30EE200A4D
:105A000082ED020A26EE040A06EEA30A07EE430A16
:105A1000D2ED030A30EE200A82ED030AD2ED000A2D
:105A200060EEA00A92ED011AD2ED011A41EE210AB0
:105A300092ED021AD2ED021A41EE210A92ED031AFA
:105A4000D2ED031A41EE210AB0EE600A04F06AFDBD
:105A5000F0EE402A92ED000A20EE220A82ED000AC2
:105A600092ED010A20EE220A82ED010A92ED020A6D
:105A700020EE220A82ED020A92ED030A20EE220AAB
:105A800082ED030ABDEC068B00BD0000040100207E
:105A9000080100206F12833A0C0100201001002041
:105AA00000000000000100206F12033A00BFFEE773
:105AB00070470000B0EE401A10B99FED790A7047A8
:105AC00090ED100A80ED110A90ED0F0A80ED100A9A
:105AD000C0ED060A80ED071A30EEC10A80ED0F0A0C
